:400000000080002011000000E1050000E105000008B5044B1A6803F53F5302331A6000F0E7FA00BFFA46004010B5054C237833B9044B13B10448AFF300800123237010BDCA
:400040004881FF1F0000000070180000084B10B51BB108490848AFF300800848036803B910BD074B002BFBD0BDE81040184700BF000000004C81FF1F70180000C880FF1FF2
:400080000000000070B562B600F01CFB00F0B4FC00F022FD01F0D6F900F004FB464B187001F054FA01F040FA054686B200F052FE08B1202400E0002400F054FE10B144F020
:4000C0001004E4B200F0F6FA10B144F0080201E004F03702E9B2300A00F0E0F80822374B1A80374B1B6873B900F0D0F800F06AF8012850D1304B1B7813F0FF0F4BD00122A4
:400100002F4B1A6047E02E4B1B68012B32D100F0B5F800F063F8044600F066F8C4EB04230344B3F5004F03D30022244B1A8008E0C4EB0424204480B2204B1880020A9A7076
:40014000D87000F03FF818B900221D4B1A6022E0194B1B7813F0FF0F03D10322184B1A6019E000F035F810F0800F14D00222144B1A6010E0124B1B68022B02D100F086F897
:4001800009E00F4B1B68032B05D100F01BF810B900220B4B1A60084B187800F05FF8084B1868064BDA789978C0B200F043F84FF47A7000F0DFFD6FE78C81FF1F6481FF1FEC
:4001C000CC80FF1F014B1878704700BF6881FF1F014B5878704700BF6881FF1F014B9878704700BF6881FF1F014BD878704700BF6881FF1F00B587B0039100238DF8103049
:400200008DF8113008228DF812208DF8133001AA059206E0C15C06AA1A4402F8141C0133DBB2072BF6D903A800F0AAFC07B05DF804FB00BF00B583B00023009301938DF84E
:4002400002008DF805108DF8062040F263416846FFF7D0FF03B05DF804FB00BF00B583B00023009301938DF8000040F263316846FFF7C0FF03B05DF804FB00BF08B50120A4
:4002800000F050FD012000F059FD08BD08B5002000F048FD002000F051FD08BD00B583B00023009301938DF800008DF801108DF8022040F283316846FFF79CFF03B05DF87F
:4002C00004FB00BFFEE700BFF0B40022174611E050F82760F3B226F0FF0608E001EB420511F812406D78A5550132013BDBB2002BF4D10137132FEBD9F0BC70470B4B1B782E
:40030000DBB203F007010A4A11701B09013213702023A2F23272137002F6C3121370583213704422034B1A70704700BFCF0100496E5800407658004008B50A46002101F02B
:400340008EFA08BD08B501F07FFA08BD38B50024304B1C80502202331A7002331C80582202331A7004222C492C48FFF7EBFF02222B4B1A7008224FF040231A70522203F50C
:4003800000731A70274B1B78DBB2274A13704FF4E162264B1A8041F25122023B1A8019250CE0234B1B7803F0010343EA440404F003044FF4F07001F00BFA013D0DB1032C56
:4003C000EFD115B90320FFF77DFF1A4A4FF48073138007231370002317490B704820023108701370053213700222144B1A7004220A331A70124A137843F003031370013ADA
:40040000137843F001031370013A137843F08003137038BD80400040D402004800410040004300400F010049A146004022420040254200400440004006400040014000400B
:40044000A2430040012807D8044B53F820201844017A13780B431370704700BF74180000012808D8044B53F820201844017A137823EA0103137070477418000038B572B60F
:4004800000240BE03D4863001A19510001440A46098AD068FFF750FF0134E4B2062CF1D900240BE03549A3001819420088188022C16B806BFFF746FF0134E4B2002CF1D066
:4004C0002F494FF09040FFF7FFFE0A222D4B1A702D4A137843F0020313701032137843F002031370294C237843F040032370A2F58632513A137843F0100313700822244931
:400500002448FFF71FFF082223492448FFF71AFF082223492348FFF715FF082222492348FFF710FF082222492248FFF70BFF082221492248FFF706FF082221492148FFF72F
:4005400001FF082220492148FFF7FCFE204A137843F0080313701F4D61232B70FFF7F6FE81232B7001221C4B1A70FFF7C7FE0E2221461A48FFF7E6FE38BD00BF7418000043
:40058000500000488358004003500140A043004094020048025100409C020048C2510040A4020048F2510040AC02004812510040B402004822510040BC02004832510040A3
:4005C000C402004852510040CC02004862510040224300400048004004000840B043004008B501F005F903680C2B00D1FEE7FEE708B5104E104D16E029686B68AC68002264
:4006000004E051F8040B43F8040B0432A242F8D1E868002203E0002143F8041B04328242F9D11035013E002EE6D101F0E7F8FFF729FDFEE701000000401A000008B5104A11
:40064000104B1A60104A136843F40073136000230AE0032B03D80D4A52F8231000E00C490C4A42F8231001332F2BF2D90A4B1A780A4B1A70074A0A4B1A60FFF7FFFE08BDDA
:400680000004FA050CED00E014ED00E000000000E10500000080FF1FBC760040C080FF1F08ED00E0024B1878C0F38000704700BF11510040024B1878C0F34010704700BFD6
:4006C00011510040064B1A7842F001021A701B7813F0010F01D1012070470020704700BF04A0004008B501F07BF8154A137843F0010313701032137843F00103137001F0AF
:4007000073F841F201020F4B1A60FFF7DBFF4FF480320D4B1A600D4A136843F00103136040F6E80300E0013B23B1084A126812F0010FF8D00BB9012008BD002008BD00BF2C
:40074000A643004000A0004000E100E010A0004010F4004F07D1064B18801B889BB2984203D001207047022070470020704700BF16A0004050B90D4B5A7802F0EF025A70F1
:400780005B7813F0100F0CD001207047074B5A7842F010025A705B7813F0100F03D101207047002070470020704700BF14A0004030B4841EE4B20D2C28D88C1EE4B2052C96
:4007C00002D92BBB012925D1032A25D8904225D3914225D3164D6C7804F0F004204368706C78E4B2A0421DD10BB9002000E002204B01DBB29200D2B2134303430C4A13705B
:400800001278D2B293420FD001200EE002200CE002200AE0022008E0022006E0022004E0022002E0012000E0002030BC704700BF14A0004050B90D4B1A7802F0EF021A70DA
:400840001B7813F0100F0CD001207047074B1A7842F010021A701B7813F0100F03D101207047002070470020704700BF14A0004050B90D4B1A7802F0FE021A701B7813F096
:40088000010F0CD001207047074B1A7842F001021A701B7813F0010F03D101207047002070470020704700BF14A00040044B18801B889BB2984201D00120704700207047ED
:4008C00004A0004003785B01214A416841F08011995003785B0199189A5802F07F12436823F080139A4228D183680B610278184B03EB421319698268914220D1C2685A61CF
:400900000278134B03EB42135969C268914218D14FF0FF329A6102780D4B03EB42139A69B2F1FF3F0FD10022DA610278084B03EB4213DB694BB10120704701207047012032
:40094000704701207047012070470020704700BFA0A0004001780901114A436843F4000343F008038B5003781B0199189B580D4A1A40436823F4000323F008039A420BD197
:4009800083684B600278064B03EB02135A6883689A4203D001207047012070470020704720A00040F7007F0038B5002409E004EB440293000E481844FFF7CCFF28B901342F
:4009C000E4B2072CF3D9002500E001254DB10DE0084800EB0410FFF775FF30B90134E4B200E000240F2CF3D900E00125284638BDB81800001819000008B500F0F1FE324A52
:400A0000137843F0010313701032137843F00103137000F0E9FE2D4A137803F0FE03137047F2C06300E0013B23B1284A127812F0010FF8D1002B3DD04FF48032244B1A6061
:400A40002449102000F0B6F90721102000F0C6F91220FFF77DFE90B9FFF78CFE88B90023032211460420FFF7A3FE60B90120FFF7E1FE50B9FFF7FCFE48B1012308E00123FB
:400A800006E0012304E0012302E0012300E0002393B9FFF789FF88B941F20100FFF706FF70B90A4B00221A701B7813F0010F09D0012008BD012008BD012008BD012008BDA0
:400AC000012008BD002008BDA643004010A0004080E100E0690B000008B5074B1B7813B9FFF78AFF00E0002020B90122024B1A70FFF7F8FD08BD00BF7181FF1F38B51022FF
:400B0000164B5A700125002425E0154B1B881D421DD06301134A9B5C13F0200F17D015F00F0F11D0032C12D8DFE804F00205080B00F0A2F80BE000F0B3F808E000F0D0F879
:400B400005E000F0DBF802E0204600F087F86D00ADB20134E4B20F2CD7D938BD00A0004008A00040A0A0004008B5044B5B7813F0100F01D0FFF7C2FF08BD00BF00A000406A
:400B8000F0B5012100265DE017F00F0F4DD12F4B9B783B4249D103790BB14FF40013417931B92B4901EB0211046864054C6007E043F48013264901EB02110468E4004C6063
:400BC00090F806E0BEF1070F02D843EA0E4E01E043F4002EC3790BB14EF0040E00230FE01B4901EB0214032B02D9C3F10B0101E0C3F103018568ED5C21440D720133DBB21C
:400C000081798B4201D2072BEAD94FF48034114B1C6011010E4D4EF4000343F008034B5101234B510C4B1C6000217B00DFB231B10132D2B201E001270022072AA4D919B1CE
:400C40000136F6B2022EF6D90846F0BD08A0004020A0004080E100E000E100E04001054BC25C12F0010F03D0C25C42F00102C254704700BFA0A00040064BDA7AD2B2064946
:400C80000A70DA7BD2B205490A701A7842F001021A707047A0A000406881FF1F6981FF1F0A4BDA7AD2B20A490A709A7AD2B209490A705A7AD2B208490A705A7BD2B2074958
:400CC0000A701A7842F001021A707047C0A000406E81FF1F6F81FF1F6D81FF1F6C81FF1F044BDA7AD2B204490A701A7842F001021A707047E0A000407081FF1F064B9A7A76
:400D0000D2B206490A705A7AD2B205490A701A7842F001021A70704700A100406A81FF1F6B81FF1F044A137803F0EF03000100F0100018431070704750510040044A13783F
:400D400003F0DF03400100F0200018431070704750510040024B1878C0F38010704700BF31510040014B1878C00970473151004001BE704710B5044605E0084B186800F037
:400D800027FDA4F50044B4F5004FF6D8034B586800FB04F000F01CFD10BD00BFD080FF1F08B5034B1B7A00FB03F000F011FD08BDD080FF1F70B504460E46074B1D681F28CC
:400DC00002D90020FFF7D4FF04F01F04103455F8240045F8246070BD08ED00E038B504460D46072902D90020FFF7C2FF1F2C02D90020FFF7BDFF04F01F0000F1604000F5A3
:400E000064406D01EDB2057038BD00BF38B59DF81040651EEDB2032D51D8013809282ED8DFE800F0052D2D052D2D0F192D230F2B03D92548007840B222E02448007840B269
:400E40001EE00F2B03D92248007840B218E02148007840B214E00F2B03D91F48007840B20EE01E48007840B20AE00F2B03D91C48007840B204E01B48007840B200E00020A7
:400E800001EB401101FB02F2D20B91B20D2B0BD8C3F10E0192B20A4191B2621E124800EB82020133937005E0631E0F4A02EB83030F229A70013C0C4B23F8241038BD002050
:400EC000FFF756FF38BD00BF180100491C010049190100491D0100491A0100491E0100491B0100491F0100497481FF1FF8B5074600F076FC06460D4D2B7843F003032B703B
:400F00000B4C237843F0030323700A4B1F700320FFF746FF2B7803F0FC032B70237803F0FC032370304600F05FFCF8BDF8460040F946004092580040F8B504460022C14B9F
:400F40001A7401285DD13822BF4B1A70042202331A70062201331A70002501331D7001331D703F2201331A7002331D7001331D7001331D7001260A331E70502203F52763E3
:400F80001A70272201331A702C2201331A7001331D70552203331A705A2201331A70052701331F7002331E70112201331A70192201331A70972201331A704420FFF796FF60
:400FC0005822A24B1A7001331D7005331F70022201331A7001331D7001331D70284600F0E1FA4FF47A429A4B1A603146384600F0FDFA3146252000F07DFB96491D20FFF76B
:40100000D9FE022C5DD138228F4B1A70042202331A70062201331A70002501331D7001331D703F2201331A7002331D7001331D7001331D7001260A331E70502203F5276304
:401040001A70272201331A702C2201331A7001331D70552203331A705A2201331A70052701331F7002331E70112201331A70192201331A70972201331A704420FFF736FFFF
:401080005822724B1A7001331D7005331F70022201331A7001331D7001331D70284600F081FA4FF47A426A4B1A603146384600F09DFA3146252000F01DFB67491D20FFF759
:4010C00079FE032C5DD138225F4B1A70042202331A70062201331A70002501331D7001331D703F2201331A7002331D7001331D7001331D7001260A331E70502203F52763D3
:401100001A70272201331A702C2201331A7001331D70552203331A705A2201331A70052701331F7002331E70112201331A70192201331A70972201331A704420FFF7D6FE9F
:401140005822424B1A7001331D7005331F70022201331A7001331D7001331D70284600F021FA4FF47A423A4B1A603146384600F03DFA3146252000F0BDFA38491D20FFF748
:4011800019FE042C5DD138222F4B1A70042202331A70062201331A70002401331C7001331C703F2201331A7002331C7001331C7001331C7001250A331D70502203F52763A9
:4011C0001A70272201331A702C2201331A7001331C70552203331A705A2201331A70052601331E7002331D70112201331A70192201331A70972201331A704420FFF776FE43
:401200005822124B1A7001331C7005331E70022201331A7001331C7001331C70204600F0C1F94FF47A420A4B1A602946304600F0DDF92946252000F05DFA09491D20FFF75C
:40124000B9FDF8BD7481FF1F004E0040945800409081FF1F75150000791500007D150000811500002DE9F04182B0394D4FF0010885F80080374E00247474102000F0A4F935
:40128000102000F025FA07211D20FFF7A7FD0427314B1F7001331C7007331C702F4A137843F0180313702E4B1C7003F2F5231C7001331C700A22A3F209331A7001331C70BA
:4012C00002331C705B2205331A705E2201331A7004331C701422A3F68C231A70CDF8008010234FF4004249F2DA012046FFF78EFD0223009310234FF4004249F2DA012046FF
:40130000FFF784FD0323009310234FF4004249F2DA012046FFF77AFD009710234FF4004249F2DA012046FFF771FD2B78013B06EB83039A780B4B1A702B78013B36F8232015
:40134000094B1A802878FFF7F7FD02B0BDE8F081E080FF1F7481FF1F96580040075B0040935800400E4E00400C4E004070B500F037FA06462A4B1B782A4B1A7842F0010295
:401380001A701A7842F010021A7010331A7842F001021A701A7842F010021A70224D2B7843F002032B70214C237843F0020323701F4A137843F0030313700320FFF7F0FCE2
:4013C0002B7803F0FD032B70237803F0FD032370184A137843F0060313707A22164B1A70164A137843F0010313701032137843F0010313700F3A137843F00103137010326C
:40140000137843F0010313704FF000530C4A1360A2F5C0721360304600F0E6F970BD00BFE080FF1FAA430040F8460040F9460040915800407758004082580040A143004081
:4014400080E200E008B5084B9B7C4BB9064BDB7C13F0FF0F01D1FFF705FF0122024B9A74FFF784FF08BD00BF7481FF1F024A137843F0010313707047004E0040024A13783F
:4014800003F0FE0313707047004E0040094B1B7C13F0FF0F03D0074B5B7CDBB203E0064B1B7803F00103012B01D00028EED01846704700BF7481FF1F014E0040154B1B78E1
:4014C00003F00303012B07D8134B1888023B1B889BB243EA004013E0022B0AD10E4B1888023B1B7843EA00430C4A107843EA002006E00B4B188883B2074A108843EA00408A
:40150000084B1B7C13F0FF0F02D00022054B5A74704700BF144E0040124E0040114E0040104E00407481FF1F064B5B69C01A4FF47A7303FB00F0044B1B6890FBF3F000B297
:40154000704700BF7481FF1F9081FF1F10B5084A137843F004031370FFF788FF0020FFF795FFFFF7ABFF0446FFF788FF204610BD014E0040704700BF704700BF704700BFA2
:40158000704700BF10B5002404E02046FEF768FF0134E4B2012CF8D9FF22014B1A7010BDE180FF1F10B50446FFF7ECFF2046FEF749FF014B1C7010BDE180FF1F014B188877
:4015C00080B2704780400040034B1A7800F0F80010431870704700BF82400040024B187800F00700704700BF8240004070B505460E46FFF7F3FF0446FFF7E0FFA84256D0C0
:401600002B4B1B7803F0010294B900B185B938B9284B1D80284A137803F0BF03137070BD254A137843F040031370224B1D8070BD22B3002321490B7001240F310C700431EF
:401640000B700C390B7803F07F030B701A4B1B7813F0080F00D08DB9194B18800721013B1970164B1B7813F0010FFAD110490B7803F0FE030B700021104B19700C4B1B781A
:4016800013F0010F0DD00E4B1D800EB1032200E001220A4B1A70094B1B7813F0010FFAD170BD044B1D8002490B7813430B7070BDA24300408040004082400040014000402C
:4016C00002400040014B188880B2704700410040034B1A7800F0F80010431870704700BF02410040024B187800F00700704700BF0241004070B505460E46FFF7F3FF0446B3
:40170000FFF7E0FFA84256D02B4B1B7803F0010294B900B185B938B9284B1D80284A137803F0BF03137070BD254A137843F040031370224B1D8070BD22B3002321490B701F
:40174000012413310C7004390B7008390B7803F07F030B701A4B1B7813F0080F00D08DB9194B18800721013B1970164B1B7813F0010FFAD110490B7803F0FE030B700021C9
:40178000104B19700C4B1B7813F0010F0DD00E4B1D800EB1032200E001220A4B1A70094B1B7813F0010FFAD170BD044B1D8002490B7813430B7070BDA14300400041004060
:4017C000024100400140004002400040000000000230800803D000BF01380046FCD17047EFF3108072B6704780F31088704700BF014B1868704700BF4481FF1F0E4B70B59F
:401800001E460E4C0025E41AA410A54204D056F8253098470135F8E700F000F9084B094C1E46E41AA4100025A54204D056F8253098470135F8E770BD281A0000281A0000F2
:40184000281A0000301A000010B5431E0A44914204D011F8014B03F8014FF8E710BD03460244934202D003F8011BFAE77047000000000000035B004024430040400000000B
:4018800040510040100000000140000A800A0140800500140140000800400140000A004C014000020050014020000000000A01401402004880000000000000000000080053
:4018C000000060EC01000000000008000000607002000000000008000000606C03000000000008000000608C040000000800880000000000050000000800880000000000CD
:401900000600000008008800000000000700000008008800000000000000000028000000F9FF1F000000C0EC0100000028000000F9FF1F000000C08C0200000028000000D9
:40194000F9FF1F000000C06C0300000028000000F9FF1F0000002018040000000000000000000000000000000500000000000000000000000000000006000000000000009B
:4019800000000000000000000700000000000000000000000000000008000000000000000000000000000000090000000000000000000000000000000A0000000000000005
:4019C00000000000000000000B0000000000000000000000000000000C0000000000000000000000000000000D0000000000000000000000000000000E00000000000000B5
:401A000000000000000000000F00000000000000000000000000000043000000F8B500BFF8BC08BC9E4670474D0000003D060000F8B500BFF8BC08BC9E467047290000009D
:401A4000501A0000C880FF1F800000005000000000000000010000000000E02EC05D00001800000000366E0101FF00000000000000000000000000000000000000000000DD
:401A8000000000000000000000000000181A0000000000000000000000000000000000000000000000000000000000000000000000000000000000000000000000000000F4
:401AC000000000000000000000000000E480FF1F00000000000000000000000000000000000000000000000000000000000000000000000000000000000000000000000064
:401B000000000000000000000000000000000000000000000000000000000000000000000000000000000000000000000000000000000000000000000000000000000000A5
:401B40000000000000000000000000000000000000000000000000000000000000000000000000000000000000000000000000000000000000000000000000000000000065
:401B80000000000000000000000000000000000000000000000000000000000000000000000000000000000000000000000000000000000000000000000000000000000025
:401BC00000000000000000000000000000000000000000000000000000000000000000000000000000000000000000000000000000000000000000000000000000000000E5
:020000040003F7
:0200000480007A
:400000000752004002640040020501400C090140150A01404F0B0140020D014001150140011B01400441014004420140064401401D4501401A4601400D47014002480140E8
:4000400001490140034C0140084D01400250014000200104109A115312FF308078102A083A09E240EE08A910AA02AB10AF04B060B440B508B640B7A0E802EA05EC0480D138
:40008000822A84FD88088AB6948796489C20A210A403B280B440B63FB82ABE01D402D804DB04DC01DD10DF0101080401052809880A080B800C800D08108A150216101880C5
:4000C00019681A081B111C011D801E881F042108224023842B98308031083220380139503B044188488049204A20500251015210534858825A045B105FA0602462426848FE
:400100006954711072A27B018080814086A289148E0490049204970898029A409D40A640AF04B002B240B404C074C2AFC43BCA07CC0ECE0FD00AD204D63FD80FDE08E00A22
:40014000E240E40CE60189408A44EC10EC1059405D02D480D6808D029D02AD40EE1008105D027F08C202D601DE01020203400520062008400B800C020F01531155405602F0
:4001800059085F04612064086F208A028B2898109D02A708C00FC20FD407D607D803DA01E005E60445085110570883418408852087048A028B109301972698509A209B406B
:4001C0009C089D0A9E02A560B120B340B402D001D406E005EA04EE0398109D02A508A908AA20AB01AD10B040B140B708E808EA01EC042510C820B51098109D02A5081902F2
:40020000781098109D02B508C608DE02EC0800020C02000000D10004BE404180000000010080004001004000C3C8241645003A2069009004101800C300C1000C4100002070
:40024000080020002020C0071FC00218008200280000010161030000006ECD2F3FFFFFFF0000000004000000FF0001000404040C111100010000C0003000001080002000C1
:40028000404010500000000000000000000000000000000000242400240000000000C0000000000000303000300000003C03C3000000000000FFFF00FFFF0000C0000000E4
:4002C0000000200000707000000000004080800080000000250018010000000000000000000000000000000000000000000000000000000000000000000000000000000000
:4003000000000000000000000000000000000000000000000000000000000000000000000000000000000000000000000000000000000000000000000000000000000000BD
:40034000000000000000000000000000000000000000000000000000000000000000000000000000000000000000000000000000000000000000000000000000000000007D
:40038000000000000000000000000000000000000000000000000000000000000000000000000000000000000000000000000000000000000000000000000000000000003D
:4003C00000000000000000000000000000000000000000000000000000000000000000000000000000000000000000000000000000000000000000000000000000000000FD
:0200000490006A
:0400000000004005B7
:0200000490105A
:04000000BC90ACAF55
:0200000490303A
:020000004A5460
:0200000490402A
:4000000000000000000000000000000000000000000000000000000000000000000000000000000000000000000000000000000000000000000000000000000000000000C0
:400040000000000000000000000000000000000000000000000000000000000000000000000000000000000000000000000000000000000000000000000000000000000080
:400080000000000000000000000000000000000000000000000000000000000000000000000000000000000000000000000000000000000000000000000000000000000040
:4000C0000000000000000000000000000000000000000000000000000000000000000000000000000000000000000000000000000000000000000000000000000000000000
:0200000490501A
:0C00000000012E12306900012E1B7ABD99
:00000001FF