:400000000080002011000000A9050000A905000008B5044B1A6803F53F5302331A6000F0E3FA00BFFA46004010B5054C237833B9044B13B10448AFF300800123237010BD3E
:400040005081FF1F00000000B01F0000084B10B51BB108490848AFF300800848036803B910BD074B002BFBD0BDE81040184700BF000000005481FF1FB01F0000C880FF1F54
:400080000000000010B562B600F010FB00F0A8FC00F016FD01F01AF801F0EAFA00F0FEFA324B187001F096F801F082F8304B188000F0DCFD08B1202400E0002400F0DEFD7A
:4000C00010B144F01004E4B200F0E8FA10B144F0080201E004F03702254B1888C1B2000A00F06EF8234B1B6873B900F061F8224B1B78012B33D11D4B1B7813F0FF0F2ED0FF
:4001000001221C4B1A602AE01A4B1B68012B1AD11A4B1A8841F270339A4202D900F03CF801E000F02DF8144B1B781BB90022114B1A6014E00D4B1B7813F0FF0F0FD1032251
:400140000C4B1A600BE00B4B1B68032B07D100F02FF8094B1B7813B90022064B1A6000F031F84FF47A7000F091FD97E79681FF1F9481FF1FCC80FF1F6C81FF1F9281FF1FDD
:4001800008B5012000F04EFD002000F057FD012000F060FD08BD00BF08B5012000F042FD002000F057FD012000F048FD08BD00BF08B5002000F036FD002000F03FFD08BD74
:4001C000704700BF00B583B00021084601F05EFA324B1B8813F00A0F03D0314801F0EEF931E003F4806292B21AB12E4801F0E6F929E003F4006292B21AB12B4801F0DEF99E
:4002000021E003F4805292B21AB1284801F0D6F919E003F0400292B21AB1254801F0CEF911E003F0100292B21AB1224801F0C6F909E013F0010F03D01F4801F0BFF902E073
:400240001E4801F0BBF90021012001F01FFA1C4B1A781C49684601F087FA684601F0AEF90521012001F012FA174B1A781749684601F07AFA684601F0A1F90A21012001F042
:4002800005FA134B1A881349684601F06DFA684601F094F903B05DF804FB00BF7281FF1FB41F0000C01F0000CC1F0000D81F0000E41F0000F01F0000F81F000004200000F9
:4002C0006E81FF1F0C2000006D81FF1F142000009481FF1F18200000FEE700BFF0B40022174611E050F82760F3B226F0FF0608E001EB420511F812406D78A5550132013B0F
:40030000DBB2002BF4D101370D2FEBD9F0BC70470B4B1B78DBB203F007010A4A11701B09013213702023A2F23272137002F6C3121370583213704422034B1A70704700BF76
:40034000CF0100496E5800407658004008B50A46002101F000FA08BD08B501F0F1F908BD38B500242E4B1C80502202331A7004222C492D48FFF7F0FF02222C4B1A7008227A
:400380004FF040231A70522203F500731A70284B1B78DBB2274A13704FF4E162264B1A8041F25122023B1A8019250CE0234B1B7803F0010343EA440404F003044FF4F070DE
:4003C00001F082F9013D0DB1032CEFD115B90320FFF782FF1A4A4FF48073138007231370002318490B704820023108701370053213700222144B1A7004220A331A70134ABE
:40040000137843F001031370013A137843F001031370013A137843F08003137038BD00BF80400040BC00004800410040004300400F010049A1460040224200402542004071
:40044000044000400640004001400040A2430040012807D8044B53F820201844017A13780B431370704700BF1C200000012808D8044B53F820201844017A137823EA0103AF
:40048000137070471C20000038B572B600240BE0304863001A19510001440A46098AD068FFF754FF0134E4B2072CF1D92A494FF09040FFF713FF0A22284B1A70284A137822
:4004C00043F0020313701032137843F002031370244C237843F040032370A2F58632513A137843F01003137008221F491F48FFF733FF08221E491F48FFF72EFF08221E49AA
:400500001E48FFF729FF08221D491E48FFF724FF08221D491D48FFF71FFF08221C491D48FFF71AFF1C4A137843F0080313701B4D61232B70FFF714FF81232B700122184B15
:400540001A70FFF7E5FE0E2221461648FFF704FF38BD00BF1C200000380000488358004003500140A04300408C000048C251004094000048125100409C00004822510040AB
:40058000A400004832510040AC00004852510040B400004862510040224300400048004004000840B043004008B501F09DF803680C2B00D1FEE7FEE708B5094B1A681044B3
:4005C000084BC31A802B02DC054B186005E001F08BF80C2303604FF0FF32104608BD00BFD080FF1FA081FF1F08B5104E104D16E029686B68AC68002204E051F8040B43F819
:40060000040B0432A242F8D1E868002203E0002143F8041B04328242F9D11035013E002EE6D101F067F8FFF72DFDFEE7010000001422000008B5104A104B1A60104A13687E
:4006400043F40073136000230AE0032B03D80D4A52F8231000E00C490C4A42F8231001332F2BF2D90A4B1A780A4B1A70074A0A4B1A60FFF709FF08BD0004FA050CED00E09D
:4006800014ED00E000000000A90500000080FF1FBC760040C080FF1F08ED00E0024B1878C0F34010704700BF11510040064B1A7842F001021A701B7813F0010F01D1012035
:4006C00070470020704700BF04A0004008B501F003F8154A137843F0010313701032137843F00103137000F0FBFF41F201020F4B1A60FFF7DBFF4FF480320D4B1A600D4A13
:40070000136843F00103136040F6E80300E0013B23B1084A126812F0010FF8D00BB9012008BD002008BD00BFA643004000A0004000E100E010A0004010F4004F07D1064B59
:4007400018801B889BB2984203D001207047022070470020704700BF16A0004050B90D4B5A7802F0EF025A705B7813F0100F0CD001207047074B5A7842F010025A705B7879
:4007800013F0100F03D101207047002070470020704700BF14A0004030B4841EE4B20D2C28D88C1EE4B2052C02D92BBB012925D1032A25D8904225D3914225D3164D6C785D
:4007C00004F0F004204368706C78E4B2A0421DD10BB9002000E002204B01DBB29200D2B2134303430C4A13701278D2B293420FD001200EE002200CE002200AE0022008E04D
:40080000022006E0022004E0022002E0012000E0002030BC704700BF14A0004050B90D4B1A7802F0EF021A701B7813F0100F0CD001207047074B1A7842F010021A701B7821
:4008400013F0100F03D101207047002070470020704700BF14A0004050B90D4B1A7802F0FE021A701B7813F0010F0CD001207047074B1A7842F001021A701B7813F0010F37
:4008800003D101207047002070470020704700BF14A00040044B18801B889BB2984201D0012070470020704704A0004003785B01214A416841F08011995003785B019918F8
:4008C0009A5802F07F12436823F080139A4228D183680B610278184B03EB421319698268914220D1C2685A610278134B03EB42135969C268914218D14FF0FF329A61027829
:400900000D4B03EB42139A69B2F1FF3F0FD10022DA610278084B03EB4213DB694BB101207047012070470120704701207047012070470020704700BFA0A0004001780901DA
:40094000114A436843F4000343F008038B5003781B0199189B580D4A1A40436823F4000323F008039A420BD183684B600278064B03EB02135A6883689A4203D001207047FF
:40098000012070470020704720A00040F7007F0038B5002409E004EB440293000E481844FFF7CCFF28B90134E4B2072CF3D9002500E001254DB10DE0084800EB0410FFF7D7
:4009C00075FF30B90134E4B200E000240F2CF3D900E00125284638BD58200000B820000008B500F079FE324A137843F0010313701032137843F00103137000F071FE2D4AC9
:400A0000137803F0FE03137047F2C06300E0013B23B1284A127812F0010FF8D1002B3DD04FF48032244B1A602449102000F04EF90721102000F05EF91220FFF77DFE90B91C
:400A4000FFF78CFE88B90023032211460420FFF7A3FE60B90120FFF7E1FE50B9FFF7FCFE48B1012308E0012306E0012304E0012302E0012300E0002393B9FFF789FF88B904
:400A800041F20100FFF706FF70B90A4B00221A701B7813F0010F09D0012008BD012008BD012008BD012008BD012008BD002008BDA643004010A0004080E100E0550B000041
:400AC00008B5074B1B7813B9FFF78AFF00E0002020B90122024B1A70FFF7F8FD08BD00BF7481FF1F38B51022174B5A700125002426E0164B1B881D421ED06301144A9B5C0F
:400B000013F0200F18D015F0330F12D0052C13D8DFE804F003061212090C00F035F80BE000F044F808E000F063F805E000F068F802E0204600F01AF86D00ADB20134E4B2DC
:400B40000F2CD6D938BD00BF00A0004008A00040A0A0004008B5044B5B7813F0100F01D0FFF7C0FF08BD00BF00A000404001054BC25C12F0010F03D0C25C42F00102C254A7
:400B8000704700BFA0A00040054BD97B054A1170D97B054A11701A7842F001021A707047A0A000409081FF1F6C81FF1F0B4BD97A0B4A1170997A0B4A1170597A1A7A02EB29
:400BC000012209490A80D97B9A7B02EB012207490A801A7842F001021A707047C0A000406D81FF1F6E81FF1F7281FF1F7081FF1F024A137843F001031370704720A1004079
:400C0000064AD37A1B0206490B80907A03440B80137843F001031370704700BF40A100409281FF1F044A137803F0EF03000100F0100018431070704750510040044A13782C
:400C400003F0DF03400100F0200018431070704750510040044A137803F0BF03800100F0400018431070704750510040024B1878C0F38010704700BF31510040014B1878F5
:400C8000C00970473151004001BE704710B5044605E0084B186800F017FDA4F50044B4F5004FF6D8034B586800FB04F000F00CFD10BD00BFD480FF1F08B5034B1B7A00FB7F
:400CC00003F000F001FD08BDD480FF1F70B504460E46074B1D681F2802D90020FFF7D4FF04F01F04103455F8240045F8246070BD08ED00E038B504460D46072902D90020F3
:400D0000FFF7C2FF1F2C02D90020FFF7BDFF04F01F0000F1604000F564406D01EDB2057038BD00BF10B59DF80840012C51D1013809282ED8DFE800F0052D2D052D2D0F1993
:400D40002D230F2B03D92548007840B222E02448007840B21EE00F2B03D92248007840B218E02148007840B214E00F2B03D91F48007840B20EE01E48007840B20AE00F2BEE
:400D800003D91C48007840B204E01B48007840B200E0002001EB401101FB02F1C90B8AB20D2B0BD8C3F10E0289B211418AB2611E124800EB810101338B7005E0631E0F49C1
:400DC00001EB83030F219970013C0C4B23F8242010BD0020FFF758FF10BD00BF180100491C010049190100491D0100491A0100491E0100491B0100491F0100497881FF1F4C
:400E0000F8B5074600F068FC06460D4D2B7843F003032B700B4C237843F0030323700A4B1F700320FFF748FF2B7803F0FC032B70237803F0FC032370304600F051FCF8BD8D
:400E4000F8460040F9460040925800400022314B1A7101285DD170B538222F4B1A70042202331A70062201331A70002401331C7001331C703F2201331A7002331C700133C5
:400E80001C7001331C7001250A331D70502203F527631A700A23214A13702C2101321170013214704421033211704821013211700132157002321470013214700132137090
:400EC0004322174B1A705220FFF79AFF5822154B1A7001331C70052605331E70022201331A7001331C7001331C70204600F098F943F233320C4B1A602946304600F0B4F955
:400F00002946BA2000F034FA08491D20FFF7DEFE70BD70477881FF1F004E00408558004091580040945800409881FF1FFD110000F0B583B0284D01272F70284E0024747117
:400F4000102000F07FF9102000F000FA07211D20FFF7D0FE0422224B1A7001331C7007331C70204A137843F0180313701E4B1C7003F2F5231C7001331C700A22A3F20933E2
:400F80001A7001331C7002331C705B2205331A705E2201331A7004331C701422A3F68C231A70009710234FF4004248F6F0510220FFF7B8FE2B78013B06EB83039A780B4B84
:400FC0001A702B78013B36F82320094B1A802878FFF73CFF03B0F0BDE480FF1F7881FF1F96580040075B0040935800400E4E00400C4E004070B500F06FFB06462A4B1B785B
:401000002A4B1A7842F001021A701A7842F010021A7010331A7842F001021A701A7842F010021A70224D2B7843F002032B70214C237843F0020323701F4A137843F00303B1
:4010400013700320FFF738FE2B7803F0FD032B70237803F0FD032370184A137843F0060313707A22164B1A70164A137843F0010313701032137843F0010313700F3A137819
:4010800043F0010313701032137843F0010313704FF000530C4A1360A2F5C0721360304600F01EFB70BD00BFE480FF1FAA430040F8460040F9460040915800407758004009
:4010C00082580040A143004080E200E008B5084B9B794BB9064BDB7913F0FF0F01D1FFF727FF0122024B9A71FFF784FF08BD00BF7881FF1F024A137843F0010313707047CD
:40110000004E0040024A137803F0FE0313707047004E0040094B1B7913F0FF0F03D0074B5B79DBB203E0064B1B7803F00103012B01D00028EED01846704700BF7881FF1F83
:40114000014E0040154B1B7803F00303012B07D8134B1888023B1B889BB243EA004013E0022B0AD10E4B1888023B1B7843EA00430C4A107843EA002006E00B4B188883B2E1
:40118000074A108843EA0040084B1B7913F0FF0F02D00022054B5A71704700BF144E0040124E0040114E0040104E00407881FF1F064B9B68C01A4FF47A7303FB00F0044B2B
:4011C0001B6890FBF3F000B2704700BF7881FF1F9881FF1F10B5084A137843F004031370FFF788FF0020FFF795FFFFF7ABFF0446FFF788FF204610BD014E0040704700BF63
:4012000010B5002404E02046FFF730F90134E4B2012CF8D9FF22014B1A7010BDE580FF1F10B50446FFF7ECFF2046FFF711F9014B1C7010BDE580FF1F014B188880B27047F9
:4012400080400040034B1A7800F0F80010431870704700BF82400040024B187800F00700704700BF8240004070B505460E46FFF7F3FF0446FFF7E0FFA84256D02B4B1B7823
:4012800003F0010294B900B185B938B9284B1D80284A137803F0BF03137070BD254A137843F040031370224B1D8070BD22B3002321490B7001240F310C7004310B700C39BC
:4012C0000B7803F07F030B701A4B1B7813F0080F00D08DB9194B18800721013B1970164B1B7813F0010FFAD110490B7803F0FE030B700021104B19700C4B1B7813F0010F4B
:401300000DD00E4B1D800EB1032200E001220A4B1A70094B1B7813F0010FFAD170BD044B1D8002490B7813430B7070BDA24300408040004082400040014000400240004040
:40134000014B188880B2704700410040034B1A7800F0F80010431870704700BF02410040024B187800F00700704700BF0241004070B505460E46FFF7F3FF0446FFF7E0FFE3
:40138000A84256D02B4B1B7803F0010294B900B185B938B9284B1D80284A137803F0BF03137070BD254A137843F040031370224B1D8070BD22B3002321490B70012413310F
:4013C0000C7004390B7008390B7803F07F030B701A4B1B7813F0080F00D08DB9194B18800721013B1970164B1B7813F0010FFAD110490B7803F0FE030B700021104B1970D2
:401400000C4B1B7813F0010F0DD00E4B1D800EB1032200E001220A4B1A70094B1B7813F0010FFAD170BD044B1D8002490B7813430B7070BDA1430040004100400241004044
:40144000014000400240004010B50B4C237803F09F032370237803F0F00323702378184340F0100020700120FFF726FC237803F0EF03237010BD00BF2051004038B50546EF
:401480000E4C237843F020032370237803F0BF0323700020FFF710FC237803F0F003237023781D4345F0100525700120FFF704FC237803F0EF03237038BD00BF20510040CC
:4014C00070B5354B1A7802F08002D2B21A7033490A7802F0F00242F00F020A7001310A7802F0F0020A7001310A7802F0F0020A701A7802F0DF021A701A7842F040021A70F1
:401500004FF4CA760020FFF7D7FB234D2B7843F010032B700120FFF7CFFB214B1C78E4B22B7803F0EF032B700020FFF7C5FB04F00804E4B22B7843F010032B700120FFF7AB
:40154000BBFB2B7803F0EF032B7014B90A20FFF7B3FB013E0CB1002ED4D10F4A137803F0BF031370137803F08003DBB213700232137803F0F00313700132137803F0F0032F
:4015800043F00F0313700132137803F0F00343F00F03137070BD00BF20510040225100402151004010B50446FFF78AFF2009FFF765FF04F00F00FFF761FF10BD38B5054686
:4015C0000078012404E0FFF7EDFF285D0134E4B20028F8D138BD00BF10B50446FFF770FF2009FFF731FF04F00F00FFF72DFF10BD08B52820FFF74AFB0320FFF725FF05203C
:40160000FFF744FB0320FFF71FFF0F20FFF73EFB0320FFF719FF0120FFF738FB0220FFF713FF0520FFF732FB0620FFF7D5FF0E20FFF7D2FF2C20FFF7CFFF0820FFF7CCFF15
:401640000120FFF7C9FF0C20FFF7C6FF0320FFF7C3FF0520FFF71AFB08BD00BF08B50C20FFF7BAFF0122014B1A7008BD8481FF1F08B5054B5B7823B9FFF7BAFF0122024BC1
:401680005A70FFF7EBFF08BD8481FF1F08B5032819D8DFE800F002070D1381F08000FFF79BFF08BDA1F14000C0B2FFF795FF08BDA1F16C00C0B2FFF78FFF08BDA1F12C008F
:4016C000C0B2FFF789FF08BD0230800803D000BF01380046FCD17047EFF3108072B6704780F31088704700BF014B1868704700BF4881FF1F0E4B70B51E460E4C0025E41A8C
:40170000A410A54204D056F8253098470135F8E700F06EFD084B094C1E46E41AA4100025A54204D056F8253098470135F8E770BDFC210000FC210000FC2100000422000069
:4017400010B5431E0A44914204D011F8014B03F8014FF8E710BD03460244934202D003F8011BFAE7704700000EB400B54FF402719CB0ADF814106FF00041049107914FF6C9
:40178000FF711DAB02900690084853F8042BADF81610006802A9019300F064F8029B00221A701CB05DF804EB03B070474881FF1F2DE9F0478E6882469E420C4691469846A5
:4017C0003ED88A8912F4906F3AD02568096902236F1A656905EB450595FBF3F57B1C43449D4238BF1D4653050FD5294600F040FB064698B13A462169FFF7A2FFA38923F4DE
:40180000906343F08003A38113E02A4600F08EFB064670B92169504600F0DEFA0C23CAF80030A3894FF0FF3043F04003A381BDE8F08726613E44266046466561ED1BA56043
:40184000464528BF464649463246206800F0A8FAA36800209B1BA36023681E442660BDE8F08700002DE9F04F9DB003938B8980461C060D4616460DD50B695BB9402100F038
:40188000F7FA2860286118B90C23C8F80030CDE040236B610023099320238DF82930DFF89CB130238DF82A3037463C4614F8013B1BB9B7EB060910D003E0252BF9D027460F
:4018C000F3E74B46324629464046FFF771FF013000F0A780099B4B4409933B78002B00F0A08000234FF0FF3204930793059206938DF853301A930126052221784E4800F08F
:4019000041FA671C049B38B14B4A3C46801A06FA00F018430490EFE7D90644BF20228DF853201A0744BF2B228DF8532022782A2A03D0079A00210A200BE0039A111D126899
:401940000391002A10DA524243F00200079204900BE027463B780134303B092B03D800FB02320121F5E701B107923B782E2B1ED17B782A2B0AD1039B02371A1D1B68039253
:40198000002BB8BF4FF0FF33059310E0002319460593781C0A2407463A780130303A092A03D804FB01210123F5E703B1059103223978224800F0E6F940B14023CBEB000084
:4019C00003FA00F0049B013718430490397806221B487E1C8DF8281000F0D4F988B1194B33B9039B073323F007030833039314E003AB00932A46144B04A94046AFF300803C
:401A000007E003AB00932A460F4B04A9404600F093F8B0F1FF3F824603D0099B5344099342E7AB895B0601D4099801E04FF0FF301DB0BDE8F08F00BFBA210000C0210000C6
:401A4000C421000000000000B11700002DE9F04791461F460A698B6806469342B8BF1346C9F8003091F843200C46DDF8208012B10133C9F800302368990642BFD9F8003021
:401A80000233C9F80030256815F0060510D104F1190A07E00123524639463046C04701301AD00135E368D9F800209B1A9D42F1DB94F843302268003318BF012392060FD5AB
:401AC000E118302081F843005A1C94F845102244023382F8431003E04FF0FF30BDE8F08704F1430239463046C0470130F4D02268D9F80050E36802F00602042A08BF5D1B2D
:401B00002269A3680CBF25EAE57500259342C4BF9B1AED184FF000091A344D4509D00123224639463046C0470130D5D009F10109F3E70020BDE8F0872DE9F04317460A7EFD
:401B400085B06E2A984606460C460C9B01F1430E00F0AE8011D8632A22D009D8002A00F0BB80582A40F0CA8081F84520834955E0642A1ED0692A1CD0C0E0732A00F0B08043
:401B800009D86F2A2ED0702A40F0B8800A6842F020020A603EE0752A24D0782A3AD0ADE01A6801F14205111D1960136884F84230A8E021681A6811F0800F02D0111D19602A
:401BC00008E011F0400F02F10401196002D0B2F9003000E01368002B3CDA2D225B4284F8432037E021681A6811F0800F02D0111D196007E011F0400F02F10401196001D084
:401C0000138800E01368227E5C496F2A14BF0A2208221BE078225A4984F845202268186812F0800F00F104051D6003D1550601D5038800E00368D00744BF42F020022260F1
:401C40001BB9226822F0200222601022002084F8430001E049490A226568002DA56008DB206820F0040020602BB9002D7DD175460CE0002B79D07546B3FBF2F002FB10339D
:401C8000CB5C05F8013D03460028F5D1082A0BD12368DA0708D5236962689A42DEBF302305F8013C05F1FF35C5EB0E0323612EE008681A6810F0800F496903D0101D1860B0
:401CC000136808E010F0400F02F104001860136801D0198000E0196000232361754616E01A68111D1960156800216268284600F049F808B1401B6060636804E004F142053E
:401D000084F8422001232361002384F84330CDF800803B4603AA21463046FFF797FE013002D14FF0FF3026E023692A4639463046C0470130F5D023689B0710D5002504F19E
:401D4000190907E001234A4639463046C0470130E7D00135E368039A9B1A9D42F2DBE068039B9842B8BF184605E00B7804F1420584F842308AE705B0BDE8F083CB210000F2
:401D8000DC21000010B5C9B202449042034605D01C7801308C42F8D1184610BD002010BD884210B501EB020301D8421E0BE09842FBD28118D21AD34204D013F8014D01F831
:401DC000014DF8E710BD994204D011F8014B02F8014FF8E710BD000038B50546002944D051F8043C0C1F002BB8BFE41800F0D4F81E4A1368114613B96360146030E0A3423A
:401E00000DD92268A018834201BF18685B681218226063600C6023E0A24203D813465A68002AF9D118681918A1420BD12168014458188242196013D1106852680144196047
:401E40005A600DE002D90C232B6009E021686018824201BF106852680918216062605C602846BDE8384000F098B838BD8C81FF1F70B5CD1C25F0030508350C2D38BF0C25B2
:401E8000002D064601DBA94202D90C23336046E000F082F8234B1C681A462146A1B10B685B1B0ED40B2B03D90B60CC18CD501EE08C420BBF63684B681360636018BF0C46EE
:401EC00015E00C464968E9E7174C23681BB9304600F052F820602946304600F04DF8431C18D0C41C24F00304A0420DD12560304600F053F804F10B00231D20F00700C31AA2
:401F00000ED05A42E25070BD211A304600F034F80130EBD10C233360304600F03EF8002070BD00BF8C81FF1F8881FF1FF8B5074615460E4621B91146BDE8F840FFF798BF4E
:401F40001AB9FFF749FF2846F8BD00F027F885420ED929463846FFF78BFF044650B131462A46FFF7EDFB31463846FFF735FF01E03046F8BD2046F8BD38B5064C0023054600
:401F800008462360FEF718FB431C02D1236803B12B6038BD9C81FF1F7047704751F8040C0028BEBF091851F8043CC0180438704700000000424D532054454D500000000003
:401FC000535049204641554C540000004F564552564F4C5400000000554E444552564F4C54000000494D42414C414E43450000004C4F5720534F4300434841524745204D8B
:402000004F4445004E4F524D414C000025752525000000002575430025754100035B00402443004040000000005100401000405100401000F051004010000000014000107A
:4020400000140140000800400140000A004C01400002005001402000000000000000000000000000010000000000080000006070020000000000000000000000030000005A
:4020800000000000000000000400000008008800000000000500000008008800000000000600000008008800000000000700000008008800000000000000000028000000A2
:4020C000F9FF1F000000C0EC0100000028000000F9FF1F0000000070020000000000000000000000000000000300000000000000000000000000000004000000280000003C
:40210000F9FF1F00000060150500000028000000F9FF1F000000E01406000000000000000000000000000000070000000000000000000000000000000800000000000000C6
:402140000000000000000000090000000000000000000000000000000A0000000000000000000000000000000B0000000000000000000000000000000C0000000000000035
:4021800000000000000000000D0000000000000000000000000000000E0000000000000000000000000000000F0000000000000000000000000000004300232D302B2000E7
:4021C000686C4C006566674546470030313233343536373839414243444546003031323334353637383961626364656600000000F8B500BFF8BC08BC9E4670474D000000EB
:4022000035060000F8B500BFF8BC08BC9E4670472900000028220000C880FF1F8800000050000000000000000000000001000000A081FF1F0000E02EC05D000018000000B0
:4022400000366E0101FF00000000000000000000000000000000000000000000000000000000000000000000B82100000000000000000000000000000000000000000000E0
:4022800000000000000000000000000000000000000000000000000000000000000000000000000000000000E880FF1F000000000000000000000000000000000000000098
:4022C00000000000000000000000000000000000000000000000000000000000000000000000000000000000000000000000000000000000000000000000000000000000DE
:40230000000000000000000000000000000000000000000000000000000000000000000000000000000000000000000000000000000000000000000000000000000000009D
:40234000000000000000000000000000000000000000000000000000000000000000000000000000000000000000000000000000000000000000000000000000000000005D
:40238000000000000000000000000000000000000000000000000000000000000000000000000000000000000000000000000000000000000000000000000000000000001D
:020000040003F7
:0200000480007A
:400000000152004001090140040A0140010B014001150140011B0140064401400345014005460140054701400248014001490140034C0140084D01403080B502B802BE0149
:40004000D804DF011D02EC10EC1008105D027C01C202D601DE01940198109D024508940198109D02D00198109D02A508B401EC082510C820B51098109D02A5081902781053
:4000800098109D02B508C608DE02EC080000C000000000003C03C30000000000007F7F0000000000C00000000000200000707000000000004080800080000000BB00180186
:4000C0000000000000000000000000000000000000000000000000000000000000000000000000000000000000000000000000000000000000000000000000000000000000
:4001000000000000000000000000000000000000000000000000000000000000000000000000000000000000000000000000000000000000000000000000000000000000BF
:40014000000000000000000000000000000000000000000000000000000000000000000000000000000000000000000000000000000000000000000000000000000000007F
:40018000000000000000000000000000000000000000000000000000000000000000000000000000000000000000000000000000000000000000000000000000000000003F
:0200000490006A
:0400000000004005B7
:0200000490105A
:04000000BC90ACAF55
:0200000490303A
:02000000EB32E1
:0200000490402A
:4000000000000000000000000000000000000000000000000000000000000000000000000000000000000000000000000000000000000000000000000000000000000000C0
:400040000000000000000000000000000000000000000000000000000000000000000000000000000000000000000000000000000000000000000000000000000000000080
:400080000000000000000000000000000000000000000000000000000000000000000000000000000000000000000000000000000000000000000000000000000000000040
:4000C0000000000000000000000000000000000000000000000000000000000000000000000000000000000000000000000000000000000000000000000000000000000000
:0200000490501A
:0C00000000012E12306900012E1E1B9B17
:00000001FF