:400000000080002011000000410900004109000008B5044B1A6803F53F5302331A6000F0AFFC00BFFA46004010B5054C237833B9044B13B10448AFF300800123237010BD38
:400040004881FF1F00000000F82E0000084B10B51BB108490848AFF300800848036803B910BD074B002BFBD0BDE81040184700BF000000004C81FF1FF82E0000C880FF1FB6
:40008000000000000000000008B501F025FB01F011FB01F0FFFE0022134B01F061FF0CA3D3E9002302F086F80BA3D3E9002301F0A3FD0BA3D3E9002302F07CF802F062F95A
:4000C00000B200EB8003580000B208BDAFF300806666666666660A40000000000088A3405EBA490C02AB1A400000144010B562B600F0D6FC00F06EFE00F0DCFE01F068FAF6
:4001000001F038FDFFF7C0FF3A4B18803A4B1C7804F0070401F02CF808B144F0200401F02FF808B144F0100400F084FC08B144F0080400F055FA00F0E5F910B903222E4B93
:400140005A702D4B5B78012B1ED013B1022B2AD032E000F0B3F900F0C1F900283AD000F0D1F9002836D0244B9B7833B100F002FA18B10122204B5A702CE01F4BDB784BB3B9
:4001800002221D4B5A7025E000F078F900F000FA10B10222184B5A7000F0A0F9D0B90022154B5A7016E000F079F900F097F988B90022114B5A700DE000F080F903220E4BF4
:4001C0005A7000F08BF928B900F09CF910B10022094B5A702146074BB3F9000000F00EF800F044F800F074F84FF47A7000F0D0FF88E700BFA081FF1F6481FF1F08B5C0F3AB
:400200000722044BDA72C0B29872597200F0AEFE08BD00BF30A0004008B500F013FC00F0D9FD0B2000F082FC00F04AFC08BD00BF08B500F007FC00F0CDFD022000F076FCC0
:4002400000F03EFC08BD00BF08B5074B1B782BB9FFF7EEFF0122044B1A7008BDFFF7DCFF0022014B1A7008BD8581FF1F08B5114A138801339BB213800F490A8801320A8086
:400280000E490A8801320A800D490A8801320A800C490A8801320A800B4A12784AB90B4A127832B9052B04D9FFF7CEFF0022014B1A8008BD7081FF1F6C81FF1F6881FF1FE5
:4002C0006A81FF1F6E81FF1F6781FF1F6681FF1F00B583B00021084601F05AFC4F4B1B8813F00A0F03D04E4801F0EAFB64E003F4806292B21AB14B4801F0E2FB5CE003F4E7
:40030000006292B21AB1484801F0DAFB54E003F4805292B21AB1454801F0D2FB4CE003F0400292B21AB1424801F0CAFB44E003F0100292B21AB13F4801F0C2FB3CE013F063
:40034000010F03D03C4801F0BBFB35E03B4B1B7813F0010F03D03A4801F0B2FB2CE013F0100F03D0374801F0ABFB25E013F0080F03D0354801F0A4FB1EE013F0020F03D040
:40038000324801F09DFB17E013F0800F03D0304801F096FB10E013F0400F03D02D4801F08FFB09E013F0200F03D02B4801F088FB02E02A4801F084FB0021012001F0E8FB30
:4003C000274B1A782749684602F072F9684601F077FB0521012001F0DBFB234B1A782349684602F065F9684601F06AFB0A21012001F0CEFB1E4BB3F900301E4A82FB0312AC
:40040000DB17C3EBA20212B21B49684602F050F9684601F055FB03B05DF804FB8081FF1FFC2E00000C2F00001C2F00002C2F00003C2F00004C2F00005C2F00008481FF1FB3
:400440006C2F00007C2F00008C2F00009C2F0000AC2F0000BC2F0000CC2F0000DC2F00007D81FF1FEC2F00007C81FF1FF42F0000A081FF1F67666666FC2F000008B501208E
:4004800000F04AFE002000F053FE012000F05CFE0522014B1A7008BD6481FF1F08B5012000F03AFE012000F043FE002000F04CFE0622014B1A7008BD6481FF1F08B500201E
:4004C00000F02AFE002000F033FE002000F03CFE0022014B1A7008BD6481FF1F08B5064B1B7813B1054B187808BD054B187808B100F036FE08BD00BF6681FF1F8281FF1F28
:400500006781FF1F184B1B7803F0200202F0FF0002BB13F0010126D103F0020202F0FF00D2B9124A12786AB103F0100202F0FF01CAB903F0400202F0FF007AB913F0080F9F
:400540000ED070470A49087868B113F0800F09D01046704700207047084670470846704701207047012070478481FF1F6681FF1F6781FF1F044B1B78013BDBB2012B01D813
:4005800001207047002070477981FF1F0000000008B50D4B188801F0F3FF01F08DFC08A3D3E9002301F0DCFC01F014FF80B2074BB3F900308342D4BF0020012008BD00BF8E
:4005C000666666666666EE3F7E81FF1F7A81FF1F024A137818431070704700BF8481FF1F08B50022214B1A70214B1B7833B1214B1B880A2B02D90220FFF7EAFF1E4B1B7815
:4006000033B11E4B1B880A2B02D90220FFF7E0FF1B4B1B880A2B02D90820FFF7D9FF194B1B8813B9184B1B8813B11020FFF7D0FF164B1B78032B02D14020FFF7C9FF144BB0
:400640001B880A2B02D90120FFF7C2FF00F0F2F910B92020FFF7BCFF0E4B1B7813F00B0F02D08020FFF7B4FF08BD00BF8481FF1F6681FF1F6E81FF1F6781FF1F6881FF1F70
:400680006A81FF1F7681FF1F7481FF1F7881FF1F6C81FF1F7281FF1FFEE700BFF0B40022174611E050F82760F3B226F0FF0608E001EB420511F812406D78A5550132013BCB
:4006C000DBB2002BF4D101370F2FEBD9F0BC70470A4B1B78DBB203F00701094A11701B09013213700222074B1A70202203F6F3131A704422A3F28A231A707047CF010049F5
:400700006E5800400D51004008B50A46002101F0C6FF08BD08B501F0B7FF08BD38B500242C4B1C80502202331A7004222A492B48FFF7F0FF02222A4B1A7008224FF040230E
:400740001A70032103F500731970264B1B78DBB225490B70254B1A8041F25122023B1A8019250CE0224B1B7803F0010343EA440404F003044FF4F07001F02AFA013D0DB191
:40078000032CEFD115B90320FFF786FF194B4FF480721A8007221A70002217490A704820023108701A700222033B1A7004220A331A70124A137843F001031370013A13781F
:4007C00043F001031370013A137843F08003137038BD00BF80400040BC000048004100400043004008010049A146004022420040254200400440004006400040A243004091
:40080000012807D8044B53F820201844017A13780B431370704700BF04300000012808D8044B53F820201844017A137823EA0103137070470430000038B572B62E4A13781D
:4008400043F00403137000240BE02C4863001A19510001440A46098AD068FFF755FF0134E4B2072CF1D926494FF09040FFF716FF0A22244B1A70244A137843F0020313707D
:400880001032137843F002031370204C237843F040032370A2F58632513A137843F01003137008221A491B48FFF734FF08221A491A48FFF72FFF082219491A48FFF72AFF39
:4008C000082219491948FFF725FF194A137843F008031370174D61232B70FFF71FFF81232B700122144B1A70FFF7F2FE0E2221461248FFF70FFF38BDE846004004300000EE
:40090000400000488358004003500140A04300409C00004802510040A400004812510040AC00004822510040B400004832510040224300400048004004000840B043004045
:4009400008B501F075FE03680C2B00D1FEE7FEE708B5094B1A681044084BC31A802B02DC054B186005E001F063FE0C2303604FF0FF32104608BD00BFCC80FF1FB081FF1FE5
:4009800008B5104E104D16E029686B68AC68002204E051F8040B43F8040B0432A242F8D1E868002203E0002143F8041B04328242F9D11035013E002EE6D101F03FFEFFF7A5
:4009C00095FBFEE701000000FC31000008B5104A104B1A60104A136843F40073136000230AE0032B03D80D4A52F8231000E00C490C4A42F8231001332F2BF2D90A4B1A7854
:400A00000A4B1A70074A0A4B1A60FFF715FF08BD0004FA050CED00E014ED00E000000000410900000080FF1FBC760040C080FF1F08ED00E0024B1878C0F3C000704700BFD8
:400A40000151004008B5134A136823F0010313604FF4F04300E0013B23B10E4A126812F0010FF8D19BB14FF480320B4B1A6001F0B7F80A4A137803F0FE03137010321378DE
:400A800003F0FE03137001F0AFF8002008BD012008BD00BF10A0004080E100E0A6430040064B1A7842F001021A701B7813F0010F01D1012070470020704700BF04A00040D7
:400AC00008B501F08DF8154A137843F0010313701032137843F00103137001F085F841F201020F4B1A60FFF7DBFF4FF480320D4B1A600D4A136843F0010313604FF4106357
:400B000000E0013B23B1084A126812F0010FF8D00BB9012008BD002008BD00BFA643004000A0004000E100E010A0004010F4004F07D1064B18801B889BB2984203D0012045
:400B40007047022070470020704700BF16A0004050B90D4B5A7802F0EF025A705B7813F0100F0CD001207047074B5A7842F010025A705B7813F0100F03D1012070470020DD
:400B800070470020704700BF14A0004030B4841EE4B20D2C28D88C1EE4B2052C02D92BBB012925D1032A25D8904225D3914225D3164D6C7804F0F004204368706C78E4B2AA
:400BC000A0421DD10BB9002000E002204B01DBB29200D2B2134303430C4A13701278D2B293420FD001200EE002200CE002200AE0022008E0022006E0022004E0022002E0D4
:400C0000012000E0002030BC704700BF14A0004050B90D4B1A7802F0EF021A701B7813F0100F0CD001207047074B1A7842F010021A701B7813F0100F03D101207047002041
:400C400070470020704700BF14A0004050B90D4B1A7802F0FE021A701B7813F0010F0CD001207047074B1A7842F001021A701B7813F0010F03D1012070470020704700207E
:400C8000704700BF14A00040044B18801B889BB2984201D0012070470020704704A0004003785B01214A416841F08011995003785B0199189A5802F07F12436823F08013D1
:400CC0009A4228D183680B610278184B03EB421319698268914220D1C2685A610278134B03EB42135969C268914218D14FF0FF329A6102780D4B03EB42139A69B2F1FF3F6C
:400D00000FD10022DA610278084B03EB4213DB694BB101207047012070470120704701207047012070470020704700BFA0A0004001780901114A436843F4000343F00803D7
:400D40008B5003781B0199189B580D4A1A40436823F4000323F008039A420BD183684B600278064B03EB02135A6883689A4203D001207047012070470020704720A00040CA
:400D8000F7007F0038B5002409E004EB440293000E481844FFF7CCFF28B90134E4B2072CF3D9002500E001254DB10DE0084800EB0410FFF775FF30B90134E4B200E0002456
:400DC0000F2CF3D900E00125284638BD40300000A030000008B500F003FF324A137843F0010313701032137843F00103137000F0FBFE2D4A137803F0FE0313704FF4F04374
:400E000000E0013B23B1284A127812F0010FF8D1002B3DD04FF48032244B1A602449102000F0D6F90721102000F0E6F90B20FFF77DFE90B9FFF78CFE88B90023032204213F
:400E40000920FFF7A3FE60B90120FFF7E1FE50B9FFF7FCFE48B1012308E0012306E0012304E0012302E0012300E0002393B9FFF789FF88B941F20100FFF706FF70B90A4BAE
:400E800000221A701B7813F0010F09D0012008BD012008BD012008BD012008BD012008BD002008BDA643004010A0004080E100E0550F000008B5074B1B7813B9FFF78AFFF9
:400EC00000E0002020B90122024B1A70FFF7F8FD08BD00BF8681FF1F38B510221A4B5A70012500242CE0194B1B881D4224D06301174A9B5C13F0200F1ED015F03F0F18D076
:400F0000052C19D8DFE804F00306090C0F1200F04BF811E000F064F80EE000F089F80BE000F09EF808E000F0B3F805E000F0DCF802E0204600F02AF86D00ADB20134E4B238
:400F40000F2CD0D938BD00BF00A0004008A00040A0A0004008B5044B5B7813F0100F01D0FFF7BAFF08BD00BF00A00040064B1B7813F0010F06D1044A136843F0010313606B
:400F8000002070470120704730A000404001054BC25C12F0010F03D0C25C42F00102C254704700BFA0A000400023084A1380084A1370084BD97B084A1170D97B074A117002
:400FC0001A7842F001021A70704700BF6E81FF1F6681FF1FA0A000408381FF1F8281FF1F00220D4B1A800D4BD97A0D4A1170997A0C4A1170597A1A7A02EB01220A490A8080
:40100000D97B9A7B02EB012208490A801A7842F001021A70704700BF6C81FF1FC0A000407C81FF1F7D81FF1F8081FF1F7E81FF1F0122074B1A700022064B1A80064BD97BC6
:40104000064A11701A7842F001021A70704700BF6781FF1F6881FF1FE0A000407281FF1F0022074B1A80074BD97A074A1170DA7B520906490A701A7842F001021A707047F4
:401080006A81FF1F00A100407981FF1F7881FF1F10B400200F4B18800F4B1A7A0F4908805A7A08809A7A12020A80DC7A22440A801A7B0B4908805A7B08809A7B12020A809E
:4010C000DB7B1A440A80074A137843F00103137010BC70476A81FF1FC0A000407681FF1F7481FF1F20A100400022084B1A80084A937A1B021BB207490B80D07A03440B8078
:40110000137843F001031370704700BF6A81FF1F40A100407A81FF1F044A137803F07F03C001C0B218431070704700BF20510040044A137803F0FE0300F001001843107095
:40114000704700BF30510040044A137803F0FD03400000F0020018431070704730510040024B187800F00100704700BF01510040024B1878C0F34010704700BF1151004019
:40118000014B1878C00970470151004001BE704710B5044605E0084B186800F019FDA4F50044B4F5004FF6D8034B586800FB04F000F00EFD10BD00BFD080FF1F08B5034B5E
:4011C0001B7A00FB03F000F003FD08BDD080FF1F70B504460E46074B1D681F2802D90020FFF7D4FF04F01F04103455F8240045F8246070BD08ED00E038B504460D4607295B
:4012000002D90020FFF7C2FF1F2C02D90020FFF7BDFF04F01F0000F1604000F564406D01EDB2057038BD00BF10B59DF80840012C51D1013809282ED8DFE800F0052D2D0515
:401240002D2D0F192D230F2B03D92548007840B222E02448007840B21EE00F2B03D92248007840B218E02148007840B214E00F2B03D91F48007840B20EE01E48007840B28B
:401280000AE00F2B03D91C48007840B204E01B48007840B200E0002001EB401101FB02F1C90B8AB20D2B0BD8C3F10E0289B211418AB2611E124800EB810101338B7005E071
:4012C000631E0F4901EB83030F219970013C0C4B23F8242010BD0020FFF758FF10BD00BF180100491C010049190100491D0100491A0100491E0100491B0100491F01004985
:401300008881FF1FF8B5074600F06AFC06460D4D2B7843F003032B700B4C237843F0030323700A4B1F700320FFF748FF2B7803F0FC032B70237803F0FC032370304600F061
:4013400053FCF8BDF8460040F9460040925800400022314B1A7101285DD170B538222F4B1A70042202331A70062201331A70002401331C7001331C703F2201331A7002337C
:401380001C7001331C7001331C7001250A331D70502203F527631A700A23214A13702C21013211700132147044210332117048210132117001321570023214700132147081
:4013C000013213704322174B1A705220FFF79AFF5822154B1A7001331C70052605331E70022201331A7001331C7001331C70204600F098F943F233320C4B1A602946304637
:4014000000F0B4F92946BA2000F034FA08491D20FFF7DEFE70BD70478881FF1F004E0040855800409158004094580040A481FF1F01170000F0B583B0284D01272F70284E58
:4014400000247471102000F07FF9102000F000FA07211D20FFF7D0FE0422224B1A7001331C7007331C70204A137843F0180313701E4B1C7003F2F5231C7001331C700A22A5
:40148000A3F209331A7001331C7002331C705B2205331A705E2201331A7004331C701422A3F68C231A70009710234FF4004248F6F0510220FFF7B8FE2B78013B06EB830316
:4014C0009A780B4B1A702B78013B36F82320094B1A802878FFF73CFF03B0F0BDE080FF1F8881FF1F96580040075B0040935800400E4E00400C4E004070B500F071FB0646E8
:401500002A4B1B782A4B1A7842F001021A701A7842F010021A7010331A7842F001021A701A7842F010021A70224D2B7843F002032B70214C237843F0020323701F4A1378DD
:4015400043F0030313700320FFF738FE2B7803F0FD032B70237803F0FD032370184A137843F0060313707A22164B1A70164A137843F0010313701032137843F001031370AF
:401580000F3A137843F0010313701032137843F0010313704FF000530C4A1360A2F5C0721360304600F020FB70BD00BFE080FF1FAA430040F8460040F94600409158004041
:4015C0007758004082580040A143004080E200E008B5084B9B794BB9064BDB7913F0FF0F01D1FFF727FF0122024B9A71FFF784FF08BD00BF8881FF1F024A137843F00103E3
:4016000013707047004E0040024A137803F0FE0313707047004E0040094B1B7913F0FF0F03D0074B5B79DBB203E0064B1B7803F00103012B01D00028EED01846704700BF5B
:401640008881FF1F014E0040154B1B7803F00303012B07D8134B1888023B1B889BB243EA004013E0022B0AD10E4B1888023B1B7843EA00430C4A107843EA002006E00B4B8A
:40168000188883B2074A108843EA0040084B1B7913F0FF0F02D00022054B5A71704700BF144E0040124E0040114E0040104E00408881FF1F064B9B68C01A4FF47A7303FB80
:4016C00000F0044B1B6890FBF3F000B2704700BF8881FF1FA481FF1F10B5084A137843F004031370FFF788FF0020FFF795FFFFF7ABFF0446FFF788FF204610BD014E004079
:40170000704700BF10B5002404E02046FFF786F80134E4B2012CF8D9FF22014B1A7010BDE180FF1F10B50446FFF7ECFF2046FFF767F8014B1C7010BDE180FF1F014B1888C5
:4017400080B2704780400040034B1A7800F0F80010431870704700BF82400040024B187800F00700704700BF8240004070B505460E46FFF7F3FF0446FFF7E0FFA84256D03E
:401780002B4B1B7803F0010294B900B185B938B9284B1D80284A137803F0BF03137070BD254A137843F040031370224B1D8070BD22B3002321490B7001240F310C7004316E
:4017C0000B700C390B7803F07F030B701A4B1B7813F0080F00D08DB9194B18800721013B1970164B1B7813F0010FFAD110490B7803F0FE030B700021104B19700C4B1B7899
:4018000013F0010F0DD00E4B1D800EB1032200E001220A4B1A70094B1B7813F0010FFAD170BD044B1D8002490B7813430B7070BDA2430040804000408240004001400040AA
:4018400002400040014B188880B2704700410040034B1A7800F0F80010431870704700BF02410040024B187800F00700704700BF0241004070B505460E46FFF7F3FF044631
:40188000FFF7E0FFA84256D02B4B1B7803F0010294B900B185B938B9284B1D80284A137803F0BF03137070BD254A137843F040031370224B1D8070BD22B3002321490B709E
:4018C000012413310C7004390B7008390B7803F07F030B701A4B1B7813F0080F00D08DB9194B18800721013B1970164B1B7813F0010FFAD110490B7803F0FE030B70002148
:40190000104B19700C4B1B7813F0010F0DD00E4B1D800EB1032200E001220A4B1A70094B1B7813F0010FFAD170BD044B1D8002490B7813430B7070BDA143004000410040DE
:4019400002410040014000400240004010B50B4C237803F09F032370237803F0F00323702378184340F0100020700120FFF726FC237803F0EF03237010BD00BF205100409F
:4019800038B505460E4C237843F020032370237803F0BF0323700020FFF710FC237803F0F003237023781D4345F0100525700120FFF704FC237803F0EF03237038BD00BF40
:4019C0002051004070B5354B1A7802F08002D2B21A7033490A7802F0F00242F00F020A7001310A7802F0F0020A7001310A7802F0F0020A701A7802F0DF021A701A7842F007
:401A000040021A704FF4CA760020FFF7D7FB234D2B7843F010032B700120FFF7CFFB214B1C78E4B22B7803F0EF032B700020FFF7C5FB04F00804E4B22B7843F010032B70F1
:401A40000120FFF7BBFB2B7803F0EF032B7014B90A20FFF7B3FB013E0CB1002ED4D10F4A137803F0BF031370137803F08003DBB213700232137803F0F003137001321378F9
:401A800003F0F00343F00F0313700132137803F0F00343F00F03137070BD00BF20510040225100402151004010B50446FFF78AFF2009FFF765FF04F00F00FFF761FF10BDD3
:401AC00038B505460078012404E0FFF7EDFF285D0134E4B20028F8D138BD00BF10B50446FFF770FF2009FFF731FF04F00F00FFF72DFF10BD08B52820FFF74AFB0320FFF748
:401B000025FF0520FFF744FB0320FFF71FFF0F20FFF73EFB0320FFF719FF0120FFF738FB0220FFF713FF0520FFF732FB0620FFF7D5FF0E20FFF7D2FF2C20FFF7CFFF082088
:401B4000FFF7CCFF0120FFF7C9FF0C20FFF7C6FF0320FFF7C3FF0520FFF71AFB08BD00BF08B50C20FFF7BAFF0122014B1A7008BD9481FF1F08B5054B5B7823B9FFF7BAFF5B
:401B80000122024B5A70FFF7EBFF08BD9481FF1F08B5032819D8DFE800F002070D1381F08000FFF79BFF08BDA1F14000C0B2FFF795FF08BDA1F16C00C0B2FFF78FFF08BDC8
:401BC000A1F12C00C0B2FFF789FF08BD000000000230800803D000BF01380046FCD17047EFF3108072B6704780F31088704700BF81F0004102E000BF83F0004330B54FEA2A
:401C000041044FEA430594EA050F08BF90EA020F1FBF54EA000C55EA020C7FEA645C7FEA655C00F0E2804FEA5454D4EB5555B8BF6D420CDD2C4480EA020281EA030382EACC
:401C4000000083EA010180EA020281EA0303362D88BF30BD11F0004F4FEA01314FF4801C4CEA113102D0404261EB410113F0004F4FEA03334CEA133302D0524263EB430354
:401C800094EA050F00F0A780A4F10104D5F1200E0DDB02FA0EFC22FA05F2801841F1000103FA0EF2801843FA05F359410EE0A5F120050EF1200E012A03FA0EFC28BF4CF092
:401CC000020C43FA05F3C01851EBE37101F0004507D54FF0000EDCF1000C7EEB00006EEB0101B1F5801F1BD3B1F5001F0CD349085FEA30004FEA3C0C04F101044FEA445252
:401D000012F5800F80F09A80BCF1004F08BF5FEA500C50F1000041EB045141EA050130BD5FEA4C0C404141EB010111F4801FA4F10104E9D191F0000F04BF01460020B1FA8E
:401D400081F308BF2033A3F10B03B3F120020CDA0C3208DD02F1140CC2F10C0201FA0CF021FA02F10CE002F11402D8BFC2F1200C01FA02F120FA0CFCDCBF41EA0C0190406D
:401D8000E41AA2BF01EB0451294330BD6FEA04041F3C1CDA0C340EDC04F11404C4F1200220FA04F001FA02F340EA030021FA04F345EA030130BDC4F10C04C4F1200220FA57
:401DC00002F001FA04F340EA0300294630BD21FA04F0294630BD94F0000F83F4801306BF81F480110134013D4EE77FEA645C18BF7FEA655C29D094EA050F08BF90EA020FF4
:401E000005D054EA000C04BF1946104630BD91EA030F1EBF0021002030BD5FEA545C05D14000494128BF41F0004130BD14F580043CBF01F5801130BD01F0004545F0FE4101
:401E400041F470014FF0000030BD7FEA645C1ABF194610467FEA655C1CBF0B46024650EA013406BF52EA033591EA030F41F4002130BD00BF90F0000F04BF0021704730B5F5
:401E80004FF4806404F132044FF000054FF0000150E700BF90F0000F04BF0021704730B54FF4806404F1320410F0004548BF40424FF000013EE700BF42004FEAE2014FEA6C
:401EC00031014FEA02701FBF12F07F4393F07F4F81F06051704792F0000F14BF93F07F4F704730B54FF4607401F0004521F0004120E700BF50EA010208BF704730B54FF0A4
:401F000000050AE050EA010208BF704730B511F0004502D5404261EB41014FF4806404F132045FEA915C3FF4DCAE4FF003025FEADC0C18BF03325FEADC0C18BF033202EBF5
:401F4000DC02C2F1200300FA03FC20FA02F001FA03FE40EA0E0021FA02F11444C1E600BF70B54FF0FF0C4CF4E06C1CEA11541DBF1CEA135594EA0C0F95EA0C0F00F0DEF8FF
:401F80002C4481EA030621EA4C5123EA4C5350EA013518BF52EA033541F4801143F4801338D0A0FB02CE4FF00005E1FB02E506F00042E0FB03E54FF00006E1FB03569CF023
:401FC000000F18BF4EF0010EA4F1FF04B6F5007F64F5407404D25FEA4E0E6D4146EB060642EAC62141EA55514FEAC52040EA5E504FEACE2EB4F1FD0C88BFBCF5E06F1ED87F
:40200000BEF1004F08BF5FEA500E50F1000041EB045170BD06F0004646EA010140EA020081EA0301B4EB5C04C2BFD4EB0C0541EA045170BD41F480114FF0000E013C00F3FC
:40204000AB8014F1360FDEBF002001F0004170BDC4F10004203C35DA0C341BDC04F11404C4F1200500FA05F320FA04F001FA05F240EA020001F0004221F0004110EBD370AC
:4020800021FA04F642EB06015EEA430E08BF20EAD37070BDC4F10C04C4F1200500FA04F320FA05F001FA04F240EA020001F0004110EBD37041F100015EEA430E08BF20EA34
:4020C000D37070BDC4F1200500FA05F24EEA020E20FA04F301FA05F243EA020321FA04F001F0004121FA04F220EA020000EBD3705EEA430E08BF20EAD37070BD94F0000F2F
:402100000FD101F00046400041EB010111F4801F08BF013CF7D041EA060195F0000F18BF704703F00046520043EB030313F4801F08BF013DF7D043EA0603704794EA0C0FA0
:402140000CEA135518BF95EA0C0F0CD050EA410618BF52EA4306D1D181EA030101F000414FF0000070BD50EA410606BF1046194652EA430619D094EA0C0F02D150EA0136E2
:4021800013D195EA0C0F05D152EA03361CBF104619460AD181EA030101F0004141F0FE4141F470014FF0000070BD41F0FE4141F4780170BD70B54FF0FF0C4CF4E06C1CEA7C
:4021C00011541DBF1CEA135594EA0C0F95EA0C0F00F0A7F8A4EB050481EA030E52EA03354FEA013100F088804FEA03334FF0805545EA131343EA12634FEA022245EA111557
:4022000045EA10654FEA00260EF000419D4208BF964244F1FD0404F5407402D25B084FEA3202B61A65EB03055B084FEA32024FF480104FF4002CB6EB020E75EB030E22BF1A
:40224000B61A754640EA0C005B084FEA3202B6EB020E75EB030E22BFB61A754640EA5C005B084FEA3202B6EB020E75EB030E22BFB61A754640EA9C005B084FEA3202B6EB24
:40228000020E75EB030E22BFB61A754640EADC0055EA060E18D04FEA051545EA16754FEA06164FEAC30343EA52734FEAC2025FEA1C1CC0D111F4801F0BD141EA00014FF0A3
:4022C00000004FF0004CB6E711F4801F04BF01430020B4F1FD0C88BFBCF5E06F3FF6AFAEB5EB030C04BFB6EB020C5FEA500C50F1000041EB045170BD0EF0004E4EEA1131E9
:4023000014EB5C04C2BFD4EB0C0541EA045170BD41F480114FF0000E013C90E645EA060E8DE60CEA135594EA0C0F08BF95EA0C0F3FF43BAF94EA0C0F0AD150EA01347FF4F9
:4023400034AF95EA0C0F7FF425AF104619462CE795EA0C0F06D152EA03353FF4FDAE1046194622E750EA410618BF52EA43067FF4C5AE50EA41047FF40DAF52EA43057FF4E8
:40238000EBAE12E74FEA410212F5001215D211D56FF47873B3EB625212D94FEAC12343F0004343EA505311F0004F23FA02F018BF404270474FF00000704750EA013005D195
:4023C00011F0004008BF6FF0004070474FF00000704700BF4A0011D212F5001211D20DD56FF47873B3EB62520ED44FEAC12343F0004343EA505323FA02F070474FF00000D5
:40240000704750EA013002D14FF0FF3070474FF00000704780F0004002E000BF81F0004142001FBF5FEA410392EA030F7FEA226C7FEA236C6AD04FEA1262D2EB1363C1BFC5
:40244000D218414048404140B8BF5B42192B88BF704710F0004F40F4000020F07F4018BF404211F0004F41F4000121F07F4118BF494292EA030F3FD0A2F1010241FA03FCC1
:4024800010EB0C00C3F1200301FA03F100F0004302D5494260EB4000B0F5000F13D3B0F1807F06D340084FEA310102F10102FE2A51D2B1F1004F40EBC25008BF20F0010022
:4024C00040EA03007047490040EB000010F4000FA2F10102EDD1B0FA80FCACF1080CB2EB0C0200FA0CF0AABF00EBC25052421843BCBFD0401843704792F0000F81F40001AC
:4025000006BF80F400000132013BB5E74FEA41037FEA226C18BF7FEA236C21D092EA030F04D092F0000F08BF0846704790EA010F1CBF0020704712F07F4F04D1400028BF5C
:4025400040F00040704712F100723CBF00F50000704700F0004343F0FE4040F4000070477FEA226216BF08467FEA23630146420206BF5FEA412390EA010F40F48000704798
:402580004FF0000304E000BF10F0004348BF40425FEA000C08BF704743F0964301464FF000001CE050EA010208BF70474FF000030AE000BF50EA010208BF704711F0004364
:4025C00002D5404261EB41015FEA010C02BF84460146002043F0B64308BFA3F18053A3F50003BCFA8CF2083AA3EBC25310DB01FA02FC634400FA02FCC2F12002BCF1004F4A
:4026000020FA02F243EB020008BF20F00100704702F1200201FA02FCC2F1200250EA4C0021FA02F243EB020008BF20EADC707047014B1868704700BF4481FF1F0E4B70B5AE
:402640001E460E4C0025E41AA410A54204D056F8253098470135F8E700F0BEFD084B094C1E46E41AA4100025A54204D056F8253098470135F8E770BDE4310000E43100003C
:40268000E4310000EC31000010B5431E0A44914204D011F8014B03F8014FF8E710BD03460244934202D003F8011BFAE7704700000EB400B54FF402719CB0ADF814106FF0FB
:4026C0000041049107914FF6FF711DAB02900690084853F8042BADF81610006802A9019300F064F8029B00221A701CB05DF804EB03B070474481FF1F2DE9F0478E6882468E
:402700009E420C46914698463ED88A8912F4906F3AD02568096902236F1A656905EB450595FBF3F57B1C43449D4238BF1D4653050FD5294600F040FB064698B13A46216981
:40274000FFF7A2FFA38923F4906343F08003A38113E02A4600F08EFB064670B92169504600F0DEFA0C23CAF80030A3894FF0FF3043F04003A381BDE8F08726613E44266079
:4027800046466561ED1BA560464528BF464649463246206800F0A8FAA36800209B1BA36023681E442660BDE8F08700002DE9F04F9DB003938B8980461C060D4616460DD563
:4027C0000B695BB9402100F0F7FA2860286118B90C23C8F80030CDE040236B610023099320238DF82930DFF89CB130238DF82A3037463C4614F8013B1BB9B7EB060910D050
:4028000003E0252BF9D02746F3E74B46324629464046FFF771FF013000F0A780099B4B4409933B78002B00F0A08000234FF0FF3204930793059206938DF853301A9301261C
:40284000052221784E4800F041FA671C049B38B14B4A3C46801A06FA00F018430490EFE7D90644BF20228DF853201A0744BF2B228DF8532022782A2A03D0079A00210A2034
:402880000BE0039A111D12680391002A10DA524243F00200079204900BE027463B780134303B092B03D800FB02320121F5E701B107923B782E2B1ED17B782A2B0AD1039B5C
:4028C00002371A1D1B680392002BB8BF4FF0FF33059310E0002319460593781C0A2407463A780130303A092A03D804FB01210123F5E703B1059103223978224800F0E6F9B7
:4029000040B14023CBEB000003FA00F0049B013718430490397806221B487E1C8DF8281000F0D4F988B1194B33B9039B073323F007030833039314E003AB00932A46144B37
:4029400004A94046AFF3008007E003AB00932A460F4B04A9404600F093F8B0F1FF3F824603D0099B5344099342E7AB895B0601D4099801E04FF0FF301DB0BDE8F08F00BFDE
:40298000A2310000A8310000AC31000000000000F92600002DE9F04791461F460A698B6806469342B8BF1346C9F8003091F843200C46DDF8208012B10133C9F80030236878
:4029C000990642BFD9F800300233C9F80030256815F0060510D104F1190A07E00123524639463046C04701301AD00135E368D9F800209B1A9D42F1DB94F843302268003332
:402A000018BF012392060FD5E118302081F843005A1C94F845102244023382F8431003E04FF0FF30BDE8F08704F1430239463046C0470130F4D02268D9F80050E36802F0DB
:402A40000602042A08BF5D1B2269A3680CBF25EAE57500259342C4BF9B1AED184FF000091A344D4509D00123224639463046C0470130D5D009F10109F3E70020BDE8F08767
:402A80002DE9F04317460A7E85B06E2A984606460C460C9B01F1430E00F0AE8011D8632A22D009D8002A00F0BB80582A40F0CA8081F84520834955E0642A1ED0692A1CD023
:402AC000C0E0732A00F0B08009D86F2A2ED0702A40F0B8800A6842F020020A603EE0752A24D0782A3AD0ADE01A6801F14205111D1960136884F84230A8E021681A6811F086
:402B0000800F02D0111D196008E011F0400F02F10401196002D0B2F9003000E01368002B3CDA2D225B4284F8432037E021681A6811F0800F02D0111D196007E011F0400F6E
:402B400002F10401196001D0138800E01368227E5C496F2A14BF0A2208221BE078225A4984F845202268186812F0800F00F104051D6003D1550601D5038800E00368D00739
:402B800044BF42F0200222601BB9226822F0200222601022002084F8430001E049490A226568002DA56008DB206820F0040020602BB9002D7DD175460CE0002B79D0754645
:402BC000B3FBF2F002FB1033CB5C05F8013D03460028F5D1082A0BD12368DA0708D5236962689A42DEBF302305F8013C05F1FF35C5EB0E0323612EE008681A6810F0800FBB
:402C0000496903D0101D1860136808E010F0400F02F104001860136801D0198000E0196000232361754616E01A68111D1960156800216268284600F049F808B1401B6060AF
:402C4000636804E004F1420584F8422001232361002384F84330CDF800803B4603AA21463046FFF797FE013002D14FF0FF3026E023692A4639463046C0470130F5D0236805
:402C80009B0710D5002504F1190907E001234A4639463046C0470130E7D00135E368039A9B1A9D42F2DBE068039B9842B8BF184605E00B7804F1420584F842308AE705B006
:402CC000BDE8F083B3310000C431000010B5C9B202449042034605D01C7801308C42F8D1184610BD002010BD884210B501EB020301D8421E0BE09842FBD28118D21AD34214
:402D000004D013F8014D01F8014DF8E710BD994204D011F8014B02F8014FF8E710BD000038B50546002944D051F8043C0C1F002BB8BFE41800F0D4F81E4A1368114613B9F0
:402D40006360146030E0A3420DD92268A018834201BF18685B681218226063600C6023E0A24203D813465A68002AF9D118681918A1420BD12168014458188242196013D1BC
:402D800010685268014419605A600DE002D90C232B6009E021686018824201BF106852680918216062605C602846BDE8384000F098B838BD9C81FF1F70B5CD1C25F0030501
:402DC00008350C2D38BF0C25002D064601DBA94202D90C23336046E000F082F8234B1C681A462146A1B10B685B1B0ED40B2B03D90B60CC18CD501EE08C420BBF63684B6860
:402E00001360636018BF0C4615E00C464968E9E7174C23681BB9304600F052F820602946304600F04DF8431C18D0C41C24F00304A0420DD12560304600F053F804F10B0027
:402E4000231D20F00700C31A0ED05A42E25070BD211A304600F034F80130EBD10C233360304600F03EF8002070BD00BF9C81FF1F9881FF1FF8B5074615460E4621B91146D5
:402E8000BDE8F840FFF798BF1AB9FFF749FF2846F8BD00F027F885420ED929463846FFF78BFF044650B131462A46FFF7EDFB31463846FFF735FF01E03046F8BD2046F8BD34
:402EC00038B5064C0023054608462360FDF740FD431C02D1236803B12B6038BDA881FF1F7047704751F8040C0028BEBF091851F8043CC0180438704700000000424D532008
:402F000054454D502020202020000000535049204641554C54202020200000004F564552564F4C542020202020000000554E444552564F4C5420202020000000494D424136
:402F40004C414E4345202020200000004C4F5720534F43202020202020000000434841524745204D4F44452020000000424D532054494D454F555420200000004D43204629
:402F800041554C5420202020200000004D432054494D454F55542020200000005643552054494D454F5554202000000043484152474552204641554C540000004D43204403
:402FC00049534348415247452000000053485554444F574E204F50454E0000004E4F524D414C20202020202020000000257525252000000025754320000000002564412009
:4030000020000000035B00402443004040000000405100403000C05100401000F0510040100000000140001000140140000800400140000A004C014000020050014020007F
:403040000000000000001800A02F37C001000000000008000000607002000000000000000000000003000000000000000000000004000000080088000000000005000000FB
:4030800008008800000000000600000008008800000000000700000008008800000000000000000028000000F9FF1F000000C0EC0100000028000000F9FF1F0000000070B8
:4030C0000200000028000000010000002C87FAC70300000028000000F9FF1F00000040150400000028000000F9FF1F00000060150500000028000000F9FF1F000000E014AA
:403100000600000000000000000000000000000007000000000000000000000000000000080000000000000000000000000000000900000000000000000000000000000071
:403140000A0000000000000000000000000000000B0000000000000000000000000000000C0000000000000000000000000000000D00000000000000000000000000000021
:403180000E0000000000000000000000000000000F0000000000000000000000000000004300232D302B2000686C4C006566674546470030313233343536373839414243ED
:4031C000444546003031323334353637383961626364656600000000F8B500BFF8BC08BC9E4670474D000000CD090000F8B500BFF8BC08BC9E467047290000001032000012
:40320000C880FF1F80000000680000000000000000000000B081FF1F0000E02EC05D00001800000000366E0101FF0000000000000000000000000000000000000000000009
:40324000000000000000000000000000A03100000000000000000000000000000000000000000000000000000000000000000000000000000000000000000000000000007D
:40328000000000000000000000000000E480FF1F0000000000000000000000000000000000000000000000000000000000000000000000000000000000000000000000008C
:4032C00000000000000000000000000000000000000000000000000000000000000000000000000000000000000000000000000000000000000000000000000000000000CE
:40330000000000000000000000000000000000000000000000000000000000000000000000000000000000000000000000000000000000000000000000000000000000008D
:40334000000000000000000000000000000000000000000000000000000000000000000000000000000000000000000000000000000000000000000000000000000000004D
:40338000000000000000000000000000000000000000000000000000000000000000000000000000000000000000000000000000000000000000000000000000000000000D
:020000040003F7
:0200000480007A
:400000000152004001050140010B01400414014003150140021B01400241014001420140024401400145014006460140034701400248014001490140054C01400B4D01401A
:400040000880EC20EC20B808BE04D804DF011C108C10EC10E010EC100C01C220B0017C02DE019C02450891209C02B110D001EC0491209C02A5082510C820B5105D0291204B
:400080009C02A508D601190279208C0291209C029D02B508C608DE02E008EC08FD00000000000200748B8B008000000000FFFF00000000000003030000000000BB001801C6
:4000C0000000000000000000000000000000000000000000000000000000000000000000000000000000000000000000000000000000000000000000000000000000000000
:4001000000000000000000000000000000000000000000000000000000000000000000000000000000000000000000000000000000000000000000000000000000000000BF
:40014000000000000000000000000000000000000000000000000000000000000000000000000000000000000000000000000000000000000000000000000000000000007F
:40018000000000000000000000000000000000000000000000000000000000000000000000000000000000000000000000000000000000000000000000000000000000003F
:0200000490006A
:0400000000004005B7
:0200000490105A
:04000000BC90ACAF55
:0200000490303A
:020000004B9023
:0200000490402A
:4000000000000000000000000000000000000000000000000000000000000000000000000000000000000000000000000000000000000000000000000000000000000000C0
:400040000000000000000000000000000000000000000000000000000000000000000000000000000000000000000000000000000000000000000000000000000000000080
:400080000000000000000000000000000000000000000000000000000000000000000000000000000000000000000000000000000000000000000000000000000000000040
:4000C0000000000000000000000000000000000000000000000000000000000000000000000000000000000000000000000000000000000000000000000000000000000000
:0200000490501A
:0C00000000012E12306900012E247BF953
:00000001FF