:400000000080002011000000B9090000B909000008B5044B1A6803F53F5302331A6000F0EBFC00BFFA46004010B5054C237833B9044B13B10448AFF300800123237010BD0C
:400040004881FF1F00000000702A0000084B10B51BB108490848AFF300800848036803B910BD074B002BFBD0BDE81040184700BF000000004C81FF1F702A0000C880FF1FCE
:40008000000000000000000008B501F0FFFA002001F004FB01F014FB01F01EFB01F0B6FC0022134B01F018FD0BA3D3E9002301F03DFE0BA3D3E9002301F05AFB0AA3D3E961
:4000C000002301F033FE00220A4B01F005FD01F015FF00B208BD00BF6666666666660A400000000000DCA3405EBA490C02AB1A40000016400000244070B562B600F0DEFC74
:4001000000F076FE00F0E4FE01F0B2FA01F080F901260024002574E0464B1C7804F0070401F054F808B944F0200401F057F808B944F0100400F0BAFC08B144F0080400F06C
:4001400061FA00F0D7F910B903223A4B5A70394B5B78012B1FD013B1022B2CD034E000F0CDFA00F0ADF900283BD000F0C3F9002839D0304B9B7833B100F004FA18B1012607
:400180002C4B5E7038E02B4BDB7873B30222294B5A70012630E000F091FA00F005FA10B10222244B5A7000F08BF900BB0022214B5A70012620E000F091FA00F081F9C0B9C6
:4001C00000261C4B5E7017E000F098FA0322194B5A7000F075F970B90022164B5A7001260AE0012608E0012606E0012604E0012602E0002600E00126012001F037F96B1CCD
:40020000DDB2632D88D900F037F8FFF73DFF0A4D288000F05FF82146B5F9000000F00EF8044BDB78002B3FF475AF304600F014F870E700BF6481FF1F9481FF1F08B5C0F34A
:400240000722044BDA72C0B29872597200F0B0FE08BD00BF30A0004008B5064B1322DA72B0229A7200225A721A221A72D87300F08FFE08BD20A000400F4A138801339BB21C
:4002800013800E490A8801320A800D490A8801320A800C490A8801320A800B490A8801320A800A4A127832B9094A12781AB9052B01D9014B1A8070477081FF1F6C81FF1FDF
:4002C0006881FF1F6A81FF1F6E81FF1F6781FF1F6681FF1F00B583B00021084601F0A6F85A4B1B8813F00A0F03D0594801F036F876E003F4806292B21AB1564801F02EF806
:400300006EE003F4006292B21AB1534801F026F866E003F4805292B21AB1504801F01EF85EE003F0400292B21AB14D4801F016F856E003F010039BB21BB14A4801F00EF8AC
:400340004EE0494B1B7813F0010F03D0474801F005F845E013F0100F03D0454800F0FEFF3EE013F0080F03D0424800F0F7FF37E013F0020F03D0404800F0F0FF30E013F03E
:40038000800F03D03D4800F0E9FF29E013F0400F03D03B4800F0E2FF22E013F0200F03D0384800F0DBFF1BE0374B1B781BB9374800F0D4FF14E0012B03D1354800F0CEFF57
:4003C0000EE0022B03D1334800F0C8FF08E0032B03D1314800F0C2FF02E0304800F0BEFF0021012001F022F82D4B1B882D4AA2FB033252092C49684601F016FF684600F0EE
:40040000ADFF0521012001F011F8284B1A782849684601F009FF684600F0A0FF0A21012001F004F8234BB3F90030234A82FB0312DB17C3EBA20212B22049684601F0F4FEF1
:40044000684600F08BFF03B05DF804FB8081FF1F742A0000842A0000942A0000A42A0000B42A0000C42A00008581FF1FD42A0000E42A0000F42A0000042B0000142B0000CE
:40048000242B0000342B00006581FF1F442B0000542B0000642B0000742B0000842B00007E81FF1F1F85EB51942B00007C81FF1F9C2B00009481FF1F67666666A42B000086
:4004C000084B1B7813B1084B18787047074B187830B1074B1878400980F0010000F00100704700BF6681FF1F8281FF1F6781FF1F8581FF1F08B51F4B1B783BB1FFF7E0FF27
:40050000034660BB00211B4A117031E01A4A127802F0200101F0FF0051BB12F0010320D102F0020101F0FF0011BB144B197871B102F0100101F0FF03A9B902F0400101F00C
:40054000FF00A9B912F0080F0FD0034610E00C4B1B786BB112F0800F09D00B4608E0002306E0034604E0034602E0012300E00123184608BDCC80FF1F8581FF1F6681FF1F01
:400580006781FF1F064B1A78531EDBB2012B03D9042A03D10120704701207047002070477981FF1F0000000008B50F4B1B880F48A0FB0330C00801F0A3FD01F039FA08A3A4
:4005C000D3E9002301F088FA01F0C0FC80B2084BB3F900308342D4BF0020012008BD00BFCDCCCCCCCCCCEC3F7E81FF1FCDCCCCCC7A81FF1F024A137818431070704700BFFB
:400600008581FF1F08B50022214B1A70214B1B78EBB1214B1B881E2B02D90220FFF7EAFF1E4B1B881E2B02D90820FFF7E3FF1C4B1B8813B91B4B1B8813B11020FFF7DAFF20
:40064000194B1B78032B02D14020FFF7D3FF174B1B7873B1164B1B881E2B02D90220FFF7C9FF144B1B7813F0170F02D08020FFF7C1FF114B1B881E2B02D90120FFF7BAFF03
:4006800000F014FA10B92020FFF7B4FF08BD00BF8581FF1F6681FF1F6E81FF1F6A81FF1F7681FF1F7481FF1F7881FF1F6781FF1F6881FF1F7281FF1F6C81FF1F08B5012081
:4006C00000F060FD002000F069FD012000F072FD0522014B1A7008BD6481FF1F08B5012000F050FD012000F059FD002000F062FD0622014B1A7008BD6481FF1F08B500205E
:4007000000F040FD002000F049FD002000F052FD0022014B1A7008BD6481FF1FFEE700BFF0B40022174611E050F82760F3B226F0FF0608E001EB420511F812406D78A5557B
:400740000132013BDBB2002BF4D101370F2FEBD9F0BC704708B50A46002101F05CFD08BDF8B5164B1B78DBB2154E3478E4B2154F3D78EDB203F00701134A11701B090132F8
:40078000137044F00303337045F003033B702023A2F23272137040220C490A7002310A700B4A1370033213700A2000F075FE3D7034706622074B1A70F8BD00BFCF010049B8
:4007C000F8460040F94600406E58004009590040285B00407658004008B501F011FD08BD38B5042229492A48FFF7F6FF0222294B1A7008224FF040231A70522203F50073C9
:400800001A70254B1B78DBB2244A13704FF4E162234B1A8041F25122023B1A80002419250CE0204B1B7803F0010343EA440404F003044FF4F07000F087FF013D0DB1032CAB
:40084000EFD115B90320FFF769FF174A4FF48073138007231370002314490B704820023108701370053213700222114B1A7004220A331A700F4A137843F001031370013A77
:40088000137843F08003137038BD00BFB400004800410040004300400F010049A14600402242004025420040044000400640004001400040A143004038B572B600240CE021
:4008C000294D630019194A0011462A44084691882858FFF73FFF0134E4B2072CF0D923494FF09040FFF71CFF214A137843F0020313701032137843F00203137008221D49A7
:400900001D48FFF769FF08221C491D48FFF764FF08221C491C48FFF75FFF08221B491C48FFF75AFF08221B491B48FFF755FF08221A491B48FFF750FF1A4A137843F0080382
:400940001370194C61232370FFF74AFF812323700122164B1A70FFF703FF0E2214491548FFF73AFF38BD00BFAC2B0000400000480350014084000048C25100408C00004849
:400980001251004094000048225100409C00004832510040A400004852510040AC00004862510040224300400048004004000840A0430040B043004008B501F0F5FB0368D0
:4009C0000C2B00D1FEE7FEE708B5094B1A681044084BC31A802B02DC054B186005E001F0E3FB0C2303604FF0FF32104608BD00BFD080FF1FA881FF1F08B5104E104D16E00A
:400A000029686B68AC68002204E051F8040B43F8040B0432A242F8D1E868002203E0002143F8041B04328242F9D11035013E002EE6D101F0BFFBFFF75FFBFEE701000000D5
:400A4000982D000008B5104A104B1A60104A136843F40073136000230AE0032B03D80D4A52F8231000E00C490C4A42F8231001332F2BF2D90A4B1A780A4B1A70074A0A4B2C
:400A80001A60FFF719FF08BD0004FA050CED00E014ED00E000000000B90900000080FF1FBC760040C080FF1F08ED00E0024B1878C0F34010704700BF11510040064B1A784C
:400AC00042F001021A701B7813F0010F01D1012070470020704700BF04A0004008B500F03BFE154A137843F0010313701032137843F00103137000F033FE41F201020F4BAB
:400B00001A60FFF7DBFF4FF480320D4B1A600D4A136843F0010313604FF4107300E0013B23B1084A126812F0010FF8D00BB9012008BD002008BD00BFA643004000A0004075
:400B400000E100E010A0004010F4004F07D1064B18801B889BB2984203D001207047022070470020704700BF16A0004050B90D4B5A7802F0EF025A705B7813F0100F0CD025
:400B800001207047074B5A7842F010025A705B7813F0100F03D101207047002070470020704700BF14A0004030B4841EE4B20D2C28D88C1EE4B2052C02D92BBB012925D182
:400BC000032A25D8904225D3914225D3164D6C7804F0F004204368706C78E4B2A0421DD10BB9002000E002204B01DBB29200D2B2134303430C4A13701278D2B293420FD076
:400C000001200EE002200CE002200AE0022008E0022006E0022004E0022002E0012000E0002030BC704700BF14A0004050B90D4B1A7802F0EF021A701B7813F0100F0CD007
:400C400001207047074B1A7842F010021A701B7813F0100F03D101207047002070470020704700BF14A0004050B90D4B1A7802F0FE021A701B7813F0010F0CD0012070475F
:400C8000074B1A7842F001021A701B7813F0010F03D101207047002070470020704700BF14A00040044B18801B889BB2984201D0012070470020704704A0004003785B01F2
:400CC000214A416841F08011995003785B0199189A5802F07F12436823F080139A4228D183680B610278184B03EB421319698268914220D1C2685A610278134B03EB42136B
:400D00005969C268914218D14FF0FF329A6102780D4B03EB42139A69B2F1FF3F0FD10022DA610278084B03EB4213DB694BB101207047012070470120704701207047012099
:400D400070470020704700BFA0A0004001780901114A436843F4000343F008038B5003781B0199189B580D4A1A40436823F4000323F008039A420BD183684B600278064BE2
:400D800003EB02135A6883689A4203D001207047012070470020704720A00040F7007F0038B5002409E004EB440293000E481844FFF7CCFF28B90134E4B2072CF3D90025D2
:400DC00000E001254DB10DE0084800EB0410FFF775FF30B90134E4B200E000240F2CF3D900E00125284638BDDC2B00003C2C000008B500F0B1FC324A137843F00103137097
:400E00001032137843F00103137000F0A9FC2D4A137803F0FE0313704FF4F05300E0013B23B1284A127812F0010FF8D1002B3DD04FF48032244B1A602449102000F036FBFC
:400E40000721102000F046FB0220FFF77DFE90B9FFF78CFE88B90023012211460C20FFF7A3FE60B90120FFF7E1FE50B9FFF7FCFE48B1012308E0012306E0012304E00123A9
:400E800002E0012300E0002393B9FFF789FF88B941F20100FFF706FF70B90A4B00221A701B7813F0010F09D0012008BD012008BD012008BD012008BD012008BD002008BDE3
:400EC000A643004010A0004080E100E0790F000008B5074B1B7813B9FFF78AFF00E0002020B90122024B1A70FFF7F8FD08BD00BF8681FF1F38B510221C4B5A700125002422
:400F000030E01B4B1B881D4228D06301194A9B5C13F0200F22D015F07F0F1CD0062C1DD8DFE804F004070A0D1013160000F05EF814E000F077F811E000F09CF80EE000F0B7
:400F4000C1F80BE000F0D6F808E000F0FDF805E000F010F902E0204600F03AF86D00ADB20134E4B20F2CCCD938BD00BF00A0004008A00040A0A0004008B5044B5B7813F0A5
:400F8000100F01D0FFF7B6FF08BD00BF00A00040064B1B7813F0010F06D1044A136843F001031360002070470120704720A00040064B1B7813F0010F06D1044A136843F078
:400FC00001031360002070470120704730A000404001054BC25C12F0010F03D0C25C42F00102C254704700BFA0A000400022084B1A800122074B1A70074BD97A074A117043
:40100000D97B074A11701A7842F001021A7070476E81FF1F6681FF1FA0A000408281FF1F8481FF1F00220D4B1A800D4BD97A0D4A1170997A0C4A1170597A1A7A02EB0122B4
:401040000A490A80D97B9A7B02EB012208490A801A7842F001021A70704700BF6C81FF1FC0A000407C81FF1F7D81FF1F8081FF1F7E81FF1F82B001220E4B1A7000220E4BA7
:401080001A800E4BD97A9A7A02EB012292B2ADF80620597A1A7A02EB012292B2ADF80420D97B074A11701A7842F001021A7002B0704700BF6781FF1F6881FF1FE0A00040C7
:4010C0007281FF1F0022074B1A80074BD97A074A1170DA7B520906490A701A7842F001021A7070476A81FF1F00A100407981FF1F7881FF1F10B400200F4B18800F4B1A7AFC
:401100000F4908805A7A08809A7A12020A80DC7A22440A801A7B0B4908805A7B08809A7B12020A80D87B02440A801A7842F001021A7010BC704700BF6A81FF1F20A100403A
:401140007681FF1F7481FF1F0022074B1A80074AD37A07490B80907A43EA00230B80137843F00103137070476A81FF1F40A100407A81FF1F024A137843F001031370704754
:4011800060A10040044A137803F0EF03000100F0100018431070704750510040044A137803F0DF03400100F0200018431070704750510040044A137803F0BF03800100F04B
:4011C000400018431070704750510040024B1878C0F38010704700BF31510040014B1878C00970473151004010B50B4C237803F09F032370237803F0F003237023781843DD
:4012000040F010002070012000F046F9237803F0EF03237010BD00BF2051004038B505460E4C237843F020032370237803F0BF032370002000F030F9237803F0F0032370F8
:4012400023781D4345F010052570012000F024F9237803F0EF03237038BD00BF2051004070B5354B1A7802F08002D2B21A7033490A7802F0F00242F00F020A7001310A78E2
:4012800002F0F0020A7001310A7802F0F0020A701A7802F0DF021A701A7842F040021A704FF4CA76002000F0F7F8234D2B7843F010032B70012000F0EFF8214B1C78E4B23B
:4012C0002B7803F0EF032B70002000F0E5F804F00804E4B22B7843F010032B70012000F0DBF82B7803F0EF032B7014B90A2000F0D3F8013E0CB1002ED4D10F4A137803F065
:40130000BF031370137803F08003DBB213700232137803F0F00313700132137803F0F00343F00F0313700132137803F0F00343F00F03137070BD00BF205100402251004007
:401340002151004010B50446FFF78AFF2009FFF765FF04F00F00FFF761FF10BD38B505460078012404E0FFF7EDFF285D0134E4B20028F8D138BD00BF10B50446FFF770FF80
:401380002009FFF731FF04F00F00FFF72DFF10BD08B5282000F06AF80320FFF725FF052000F064F80320FFF71FFF0F2000F05EF80320FFF719FF012000F058F80220FFF791
:4013C00013FF052000F052F80620FFF7D5FF0E20FFF7D2FF2C20FFF7CFFF0820FFF7CCFF0120FFF7C9FF0C20FFF7C6FF0320FFF7C3FF052000F03AF808BD00BF08B50C2049
:40140000FFF7BAFF0122014B1A7008BD8781FF1F08B5054B5B7823B9FFF7BAFF0122024B5A70FFF7EBFF08BD8781FF1F08B5032819D8DFE800F002070D1381F08000FFF709
:401440009BFF08BDA1F14000C0B2FFF795FF08BDA1F16C00C0B2FFF78FFF08BDA1F12C00C0B2FFF789FF08BD01BE704710B5044605E0084B186800F067F9A4F50044B4F53B
:40148000004FF6D8034B586800FB04F000F05CF910BD00BFD480FF1F08B5034B1B7A00FB03F000F051F908BDD480FF1F70B504460E46074B1D681F2802D90020FFF7D4FF2B
:4014C00004F01F04103455F8240045F8246070BD08ED00E038B504460D46072902D90020FFF7C2FF1F2C02D90020FFF7BDFF04F01F0000F1604000F564406D01EDB205703A
:4015000038BD00BF08B50A280FD00C2802D0082806D102E04FF4805209E04FF4807206E00020FFF7A1FF002201E04FF480620021094B198042F2107303FB02F303F27263C1
:40154000064A82FB03021A44DB17C3EBE223044A1360044B198008BD9881FF1FEF09E09E9C81FF1F9A81FF1F10B500F0F5F804461E4A137843F0020313701032137843F06D
:40158000020313701A3A137843F0010313701032137843F00103137002F5AA521A32137843F0030313701822114B1A70013B1A7842F040021A701A7802F0FC021A70C8221B
:4015C000053B1A700222A3F59753123B1A70094A137843F0080313700A20FFF75DFF0122054B1A60204600F0BBF810BDAB4300400E5900402F5B004080E200E010B50446D6
:401600000A280DD00C2802D0082804D101E0C22207E0422205E00020FFF726FFC22200E08222034B1A702046FFF76CFF10BD00BF0A59004008B5102000F07CF80721002091
:40164000FFF748FF07490020FFF730FF064A137843F0060313700C20FFF7D0FF0022034B1A8008BD3117000009590040A081FF1F08B5054B1B7823B9FFF7DCFF0122024B58
:401680001A70FFF771FF08BD8981FF1F024A137843F00103137070470859004010B5074B1B7813F0010401D10028F8D024B10120FFF7F2FE014B1B78204610BD0959004060
:4016C000034B188880B2034B1B88C01A00B27047A25B00409A81FF1F10B4124B1B881BB233B1104B1B881BB203EB83035C0001E00D4B1C680D4B1988411A09B242F210738D
:4017000003FB01F2002903DD04EBD470401003E004EBD47040104042831893FBF4F000B210BC70479881FF1F9C81FF1FA081FF1F704700BF034B1A7800F0F8001043187038
:40174000704700BF024100400230800803D000BF01380046FCD17047EFF3108072B6704780F31088704700BF81F0004102E000BF83F0004330B54FEA41044FEA430594EAE4
:40178000050F08BF90EA020F1FBF54EA000C55EA020C7FEA645C7FEA655C00F0E2804FEA5454D4EB5555B8BF6D420CDD2C4480EA020281EA030382EA000083EA010180EABC
:4017C000020281EA0303362D88BF30BD11F0004F4FEA01314FF4801C4CEA113102D0404261EB410113F0004F4FEA03334CEA133302D0524263EB430394EA050F00F0A78009
:40180000A4F10104D5F1200E0DDB02FA0EFC22FA05F2801841F1000103FA0EF2801843FA05F359410EE0A5F120050EF1200E012A03FA0EFC28BF4CF0020C43FA05F3C018A4
:4018400051EBE37101F0004507D54FF0000EDCF1000C7EEB00006EEB0101B1F5801F1BD3B1F5001F0CD349085FEA30004FEA3C0C04F101044FEA445212F5800F80F09A80D1
:40188000BCF1004F08BF5FEA500C50F1000041EB045141EA050130BD5FEA4C0C404141EB010111F4801FA4F10104E9D191F0000F04BF01460020B1FA81F308BF2033A3F111
:4018C0000B03B3F120020CDA0C3208DD02F1140CC2F10C0201FA0CF021FA02F10CE002F11402D8BFC2F1200C01FA02F120FA0CFCDCBF41EA0C019040E41AA2BF01EB045174
:40190000294330BD6FEA04041F3C1CDA0C340EDC04F11404C4F1200220FA04F001FA02F340EA030021FA04F345EA030130BDC4F10C04C4F1200220FA02F001FA04F340EA6D
:401940000300294630BD21FA04F0294630BD94F0000F83F4801306BF81F480110134013D4EE77FEA645C18BF7FEA655C29D094EA050F08BF90EA020F05D054EA000C04BFA4
:401980001946104630BD91EA030F1EBF0021002030BD5FEA545C05D14000494128BF41F0004130BD14F580043CBF01F5801130BD01F0004545F0FE4141F470014FF0000083
:4019C00030BD7FEA645C1ABF194610467FEA655C1CBF0B46024650EA013406BF52EA033591EA030F41F4002130BD00BF90F0000F04BF0021704730B54FF4806404F132040D
:401A00004FF000054FF0000150E700BF90F0000F04BF0021704730B54FF4806404F1320410F0004548BF40424FF000013EE700BF42004FEAE2014FEA31014FEA02701FBF87
:401A400012F07F4393F07F4F81F06051704792F0000F14BF93F07F4F704730B54FF4607401F0004521F0004120E700BF50EA010208BF704730B54FF000050AE050EA0102B7
:401A800008BF704730B511F0004502D5404261EB41014FF4806404F132045FEA915C3FF4DCAE4FF003025FEADC0C18BF03325FEADC0C18BF033202EBDC02C2F1200300FAF8
:401AC00003FC20FA02F001FA03FE40EA0E0021FA02F11444C1E600BF70B54FF0FF0C4CF4E06C1CEA11541DBF1CEA135594EA0C0F95EA0C0F00F0DEF82C4481EA030621EA43
:401B00004C5123EA4C5350EA013518BF52EA033541F4801143F4801338D0A0FB02CE4FF00005E1FB02E506F00042E0FB03E54FF00006E1FB03569CF0000F18BF4EF0010E63
:401B4000A4F1FF04B6F5007F64F5407404D25FEA4E0E6D4146EB060642EAC62141EA55514FEAC52040EA5E504FEACE2EB4F1FD0C88BFBCF5E06F1ED8BEF1004F08BF5FEA28
:401B8000500E50F1000041EB045170BD06F0004646EA010140EA020081EA0301B4EB5C04C2BFD4EB0C0541EA045170BD41F480114FF0000E013C00F3AB8014F1360FDEBF7D
:401BC000002001F0004170BDC4F10004203C35DA0C341BDC04F11404C4F1200500FA05F320FA04F001FA05F240EA020001F0004221F0004110EBD37021FA04F642EB0601FA
:401C00005EEA430E08BF20EAD37070BDC4F10C04C4F1200500FA04F320FA05F001FA04F240EA020001F0004110EBD37041F100015EEA430E08BF20EAD37070BDC4F12005B7
:401C400000FA05F24EEA020E20FA04F301FA05F243EA020321FA04F001F0004121FA04F220EA020000EBD3705EEA430E08BF20EAD37070BD94F0000F0FD101F000464000A6
:401C800041EB010111F4801F08BF013CF7D041EA060195F0000F18BF704703F00046520043EB030313F4801F08BF013DF7D043EA0603704794EA0C0F0CEA135518BF95EAC8
:401CC0000C0F0CD050EA410618BF52EA4306D1D181EA030101F000414FF0000070BD50EA410606BF1046194652EA430619D094EA0C0F02D150EA013613D195EA0C0F05D1C7
:401D000052EA03361CBF104619460AD181EA030101F0004141F0FE4141F470014FF0000070BD41F0FE4141F4780170BD70B54FF0FF0C4CF4E06C1CEA11541DBF1CEA1355A5
:401D400094EA0C0F95EA0C0F00F0A7F8A4EB050481EA030E52EA03354FEA013100F088804FEA03334FF0805545EA131343EA12634FEA022245EA111545EA10654FEA002687
:401D80000EF000419D4208BF964244F1FD0404F5407402D25B084FEA3202B61A65EB03055B084FEA32024FF480104FF4002CB6EB020E75EB030E22BFB61A754640EA0C00E1
:401DC0005B084FEA3202B6EB020E75EB030E22BFB61A754640EA5C005B084FEA3202B6EB020E75EB030E22BFB61A754640EA9C005B084FEA3202B6EB020E75EB030E22BF08
:401E0000B61A754640EADC0055EA060E18D04FEA051545EA16754FEA06164FEAC30343EA52734FEAC2025FEA1C1CC0D111F4801F0BD141EA00014FF000004FF0004CB6E761
:401E400011F4801F04BF01430020B4F1FD0C88BFBCF5E06F3FF6AFAEB5EB030C04BFB6EB020C5FEA500C50F1000041EB045170BD0EF0004E4EEA113114EB5C04C2BFD4EBF6
:401E80000C0541EA045170BD41F480114FF0000E013C90E645EA060E8DE60CEA135594EA0C0F08BF95EA0C0F3FF43BAF94EA0C0F0AD150EA01347FF434AF95EA0C0F7FF42D
:401EC00025AF104619462CE795EA0C0F06D152EA03353FF4FDAE1046194622E750EA410618BF52EA43067FF4C5AE50EA41047FF40DAF52EA43057FF4EBAE12E74FEA41024F
:401F000012F5001215D211D56FF47873B3EB625212D94FEAC12343F0004343EA505311F0004F23FA02F018BF404270474FF00000704750EA013005D111F0004008BF6FF0C0
:401F4000004070474FF00000704700BF4A0011D212F5001211D20DD56FF47873B3EB62520ED44FEAC12343F0004343EA505323FA02F070474FF00000704750EA013002D1CB
:401F80004FF0FF3070474FF00000704780F0004002E000BF81F0004142001FBF5FEA410392EA030F7FEA226C7FEA236C6AD04FEA1262D2EB1363C1BFD218414048404140CB
:401FC000B8BF5B42192B88BF704710F0004F40F4000020F07F4018BF404211F0004F41F4000121F07F4118BF494292EA030F3FD0A2F1010241FA03FC10EB0C00C3F12003DC
:4020000001FA03F100F0004302D5494260EB4000B0F5000F13D3B0F1807F06D340084FEA310102F10102FE2A51D2B1F1004F40EBC25008BF20F0010040EA03007047490057
:4020400040EB000010F4000FA2F10102EDD1B0FA80FCACF1080CB2EB0C0200FA0CF0AABF00EBC25052421843BCBFD0401843704792F0000F81F4000106BF80F400000132F1
:40208000013BB5E74FEA41037FEA226C18BF7FEA236C21D092EA030F04D092F0000F08BF0846704790EA010F1CBF0020704712F07F4F04D1400028BF40F00040704712F123
:4020C00000723CBF00F50000704700F0004343F0FE4040F4000070477FEA226216BF08467FEA23630146420206BF5FEA412390EA010F40F4800070474FF0000304E000BF62
:4021000010F0004348BF40425FEA000C08BF704743F0964301464FF000001CE050EA010208BF70474FF000030AE000BF50EA010208BF704711F0004302D5404261EB4101E6
:402140005FEA010C02BF84460146002043F0B64308BFA3F18053A3F50003BCFA8CF2083AA3EBC25310DB01FA02FC634400FA02FCC2F12002BCF1004F20FA02F243EB020077
:4021800008BF20F00100704702F1200201FA02FCC2F1200250EA4C0021FA02F243EB020008BF20EADC707047014B1868704700BF4481FF1F0E4B70B51E460E4C0025E41A90
:4021C000A410A54204D056F8253098470135F8E700F0D0FD084B094C1E46E41AA4100025A54204D056F8253098470135F8E770BD802D0000802D0000802D0000882D0000FE
:4022000010B5431E0A44914204D011F8014B03F8014FF8E710BD03460244934202D003F8011BFAE7704700000EB400B54FF402719CB0ADF814106FF00041049107914FF6FE
:40224000FF711DAB02900690084853F8042BADF81610006802A9019300F064F8029B00221A701CB05DF804EB03B070474481FF1F2DE9F0478E6882469E420C4691469846DE
:402280003ED88A8912F4906F3AD02568096902236F1A656905EB450595FBF3F57B1C43449D4238BF1D4653050FD5294600F040FB064698B13A462169FFF7A2FFA38923F413
:4022C000906343F08003A38113E02A4600F08EFB064670B92169504600F0DEFA0C23CAF80030A3894FF0FF3043F04003A381BDE8F08726613E44266046466561ED1BA56079
:40230000464528BF464649463246206800F0A8FAA36800209B1BA36023681E442660BDE8F08700002DE9F04F9DB003938B8980461C060D4616460DD50B695BB9402100F06D
:40234000F7FA2860286118B90C23C8F80030CDE040236B610023099320238DF82930DFF89CB130238DF82A3037463C4614F8013B1BB9B7EB060910D003E0252BF9D0274644
:40238000F3E74B46324629464046FFF771FF013000F0A780099B4B4409933B78002B00F0A08000234FF0FF3204930793059206938DF853301A930126052221784E4800F0C4
:4023C00041FA671C049B38B14B4A3C46801A06FA00F018430490EFE7D90644BF20228DF853201A0744BF2B228DF8532022782A2A03D0079A00210A200BE0039A111D1268CF
:402400000391002A10DA524243F00200079204900BE027463B780134303B092B03D800FB02320121F5E701B107923B782E2B1ED17B782A2B0AD1039B02371A1D1B68039288
:40244000002BB8BF4FF0FF33059310E0002319460593781C0A2407463A780130303A092A03D804FB01210123F5E703B1059103223978224800F0E6F940B14023CBEB0000B9
:4024800003FA00F0049B013718430490397806221B487E1C8DF8281000F0D4F988B1194B33B9039B073323F007030833039314E003AB00932A46144B04A94046AFF3008071
:4024C00007E003AB00932A460F4B04A9404600F093F8B0F1FF3F824603D0099B5344099342E7AB895B0601D4099801E04FF0FF301DB0BDE8F08F00BF3E2D0000442D0000DC
:40250000482D000000000000712200002DE9F04791461F460A698B6806469342B8BF1346C9F8003091F843200C46DDF8208012B10133C9F800302368990642BFD9F80030FB
:402540000233C9F80030256815F0060510D104F1190A07E00123524639463046C04701301AD00135E368D9F800209B1A9D42F1DB94F843302268003318BF012392060FD5E0
:40258000E118302081F843005A1C94F845102244023382F8431003E04FF0FF30BDE8F08704F1430239463046C0470130F4D02268D9F80050E36802F00602042A08BF5D1B62
:4025C0002269A3680CBF25EAE57500259342C4BF9B1AED184FF000091A344D4509D00123224639463046C0470130D5D009F10109F3E70020BDE8F0872DE9F04317460A7E33
:4026000085B06E2A984606460C460C9B01F1430E00F0AE8011D8632A22D009D8002A00F0BB80582A40F0CA8081F84520834955E0642A1ED0692A1CD0C0E0732A00F0B08078
:4026400009D86F2A2ED0702A40F0B8800A6842F020020A603EE0752A24D0782A3AD0ADE01A6801F14205111D1960136884F84230A8E021681A6811F0800F02D0111D19605F
:4026800008E011F0400F02F10401196002D0B2F9003000E01368002B3CDA2D225B4284F8432037E021681A6811F0800F02D0111D196007E011F0400F02F10401196001D0B9
:4026C000138800E01368227E5C496F2A14BF0A2208221BE078225A4984F845202268186812F0800F00F104051D6003D1550601D5038800E00368D00744BF42F02002226027
:402700001BB9226822F0200222601022002084F8430001E049490A226568002DA56008DB206820F0040020602BB9002D7DD175460CE0002B79D07546B3FBF2F002FB1033D2
:40274000CB5C05F8013D03460028F5D1082A0BD12368DA0708D5236962689A42DEBF302305F8013C05F1FF35C5EB0E0323612EE008681A6810F0800F496903D0101D1860E5
:40278000136808E010F0400F02F104001860136801D0198000E0196000232361754616E01A68111D1960156800216268284600F049F808B1401B6060636804E004F1420573
:4027C00084F8422001232361002384F84330CDF800803B4603AA21463046FFF797FE013002D14FF0FF3026E023692A4639463046C0470130F5D023689B0710D5002504F1D4
:40280000190907E001234A4639463046C0470130E7D00135E368039A9B1A9D42F2DBE068039B9842B8BF184605E00B7804F1420584F842308AE705B0BDE8F0834F2D000097
:40284000602D000010B5C9B202449042034605D01C7801308C42F8D1184610BD002010BD884210B501EB020301D8421E0BE09842FBD28118D21AD34204D013F8014D01F8D6
:40288000014DF8E710BD994204D011F8014B02F8014FF8E710BD000038B50546002944D051F8043C0C1F002BB8BFE41800F0D4F81E4A1368114613B96360146030E0A3426F
:4028C0000DD92268A018834201BF18685B681218226063600C6023E0A24203D813465A68002AF9D118681918A1420BD12168014458188242196013D110685268014419607D
:402900005A600DE002D90C232B6009E021686018824201BF106852680918216062605C602846BDE8384000F098B838BD9081FF1F70B5CD1C25F0030508350C2D38BF0C25E3
:40294000002D064601DBA94202D90C23336046E000F082F8234B1C681A462146A1B10B685B1B0ED40B2B03D90B60CC18CD501EE08C420BBF63684B681360636018BF0C4623
:4029800015E00C464968E9E7174C23681BB9304600F052F820602946304600F04DF8431C18D0C41C24F00304A0420DD12560304600F053F804F10B00231D20F00700C31AD7
:4029C0000ED05A42E25070BD211A304600F034F80130EBD10C233360304600F03EF8002070BD00BF9081FF1F8C81FF1FF8B5074615460E4621B91146BDE8F840FFF798BF7C
:402A00001AB9FFF749FF2846F8BD00F027F885420ED929463846FFF78BFF044650B131462A46FFF7EDFB31463846FFF735FF01E03046F8BD2046F8BD38B5064C0023054635
:402A400008462360FDF7C0FF431C02D1236803B12B6038BDA481FF1F7047704751F8040C0028BEBF091851F8043CC0180438704700000000424D532054454D502020202005
:402A800020000000535049204641554C54202020200000004F564552564F4C542020202020000000554E444552564F4C5420202020000000494D42414C414E4345202020AE
:402AC000200000004C4F5720534F43202020202020000000424D532054494D454F555420200000004D43204641554C5420202020200000004D432054494D454F55542020B3
:402B0000200000005643552054494D454F5554202000000043484152474552204641554C540000004D43204449534348415247452000000053485554444F574E204F50458E
:402B40004E0000004C56202020202020202020202000000050524543484152474520202020000000485620202020202020202020200000004641554C54202020202020209A
:402B800020000000594F205754463F202020202020000000257556200000000025754320000000002569412020000000005100401000405100401000F0510040100000000E
:402BC0000140001000140140000800400140000A004C014000020050014020000000000000001500A02F37C001000000000008000000E07002000000000000000000000026
:402C0000030000000000000000000000040000000800880000000000050000000800880000000000060000000800880000000000070000000800880000000000000000003B
:402C400028000000F9FF1F000000C0EC0100000028000000F9FF1F00000000700200000028000000010000002C87FAC70300000028000000F9FF1F0000004015040000007F
:402C800028000000F9FF1F00000060150500000028000000F9FF1F000000E0140600000028000000F9FF1F00000000180700000000000000000000000000000008000000BC
:402CC000000000000000000000000000090000000000000000000000000000000A0000000000000000000000000000000B0000000000000000000000000000000C000000AA
:402D00000000000000000000000000000D0000000000000000000000000000000E0000000000000000000000000000000F0000000000000000000000000000004300232DD6
:402D4000302B2000686C4C006566674546470030313233343536373839414243444546003031323334353637383961626364656600000000F8B500BFF8BC08BC9E46704731
:402D80004D000000450A0000F8B500BFF8BC08BC9E46704729000000A82D0000C880FF1F80000000600000000000000001000000A881FF1F0000E02EC05D00001800000029
:402DC00000366E0100000000000000000000000000000000000000000000000000000000000000003C2D0000000000000000000000000000000000000000000000000000C5
:402E0000000000000000000000000000000000000000000000000000000000000000000000000000E480FF1F00000000000000000000000000000000000000000000000010
:402E40000000000000000000000000000000000000000000000000000000000000000000000000000000000000000000000000000000000000000000000000000000000052
:402E80000000000000000000000000000000000000000000000000000000000000000000000000000000000000000000000000000000000000000000000000000000000012
:402EC00000000000000000000000000000000000000000000000000000000000000000000000000000000000000000000000000000000000000000000000000000000000D2
:402F00000000000000000000000000000000000000000000000000000000000000000000000000000000000000000000000000000000000000000000000000000000000091
:020000040003F7
:0200000480007A
:400000000152004001150140011B014002400140014101400142014001430140044401400245014002460140024701400148014002490140044C0140074D01400151014077
:400040003080EE08EE083320CC10A720A720A72008105D02C202D60198109D0298109D0298109D02A720AF20EE101F8098109D02C6011902781098109D02AF80C608DE0271
:4000800000030000C000000000000000FC03030000000000007F7F0000000000C000000000002000007070000000000040808000800000000E0018010000000000000000D6
:4000C0000000000000000000000000000000000000000000000000000000000000000000000000000000000000000000000000000000000000000000000000000000000000
:4001000000000000000000000000000000000000000000000000000000000000000000000000000000000000000000000000000000000000000000000000000000000000BF
:40014000000000000000000000000000000000000000000000000000000000000000000000000000000000000000000000000000000000000000000000000000000000007F
:40018000000000000000000000000000000000000000000000000000000000000000000000000000000000000000000000000000000000000000000000000000000000003F
:0200000490006A
:0400000000004005B7
:0200000490105A
:04000000BC90ACAF55
:0200000490303A
:02000000D23BF1
:0200000490402A
:4000000000000000000000000000000000000000000000000000000000000000000000000000000000000000000000000000000000000000000000000000000000000000C0
:400040000000000000000000000000000000000000000000000000000000000000000000000000000000000000000000000000000000000000000000000000000000000080
:400080000000000000000000000000000000000000000000000000000000000000000000000000000000000000000000000000000000000000000000000000000000000040
:4000C0000000000000000000000000000000000000000000000000000000000000000000000000000000000000000000000000000000000000000000000000000000000000
:0200000490501A
:0C00000000012E12306900012E2302A422
:00000001FF